{
  "address": "0x2f3CAA453eFB3cE87A7e18058EB553f598526D58",
  "abi": [
    {
      "inputs": [
        {
          "internalType": "address",
          "name": "_owner",
          "type": "address"
        }
      ],
      "stateMutability": "nonpayable",
      "type": "constructor"
    },
    {
      "inputs": [
        {
          "internalType": "address",
          "name": "sender",
          "type": "address"
        },
        {
          "internalType": "uint256",
          "name": "balance",
          "type": "uint256"
        },
        {
          "internalType": "uint256",
          "name": "needed",
          "type": "uint256"
        },
        {
          "internalType": "uint256",
          "name": "tokenId",
          "type": "uint256"
        }
      ],
      "name": "ERC1155InsufficientBalance",
      "type": "error"
    },
    {
      "inputs": [
        {
          "internalType": "address",
          "name": "approver",
          "type": "address"
        }
      ],
      "name": "ERC1155InvalidApprover",
      "type": "error"
    },
    {
      "inputs": [
        {
          "internalType": "uint256",
          "name": "idsLength",
          "type": "uint256"
        },
        {
          "internalType": "uint256",
          "name": "valuesLength",
          "type": "uint256"
        }
      ],
      "name": "ERC1155InvalidArrayLength",
      "type": "error"
    },
    {
      "inputs": [
        {
          "internalType": "address",
          "name": "operator",
          "type": "address"
        }
      ],
      "name": "ERC1155InvalidOperator",
      "type": "error"
    },
    {
      "inputs": [
        {
          "internalType": "address",
          "name": "receiver",
          "type": "address"
        }
      ],
      "name": "ERC1155InvalidReceiver",
      "type": "error"
    },
    {
      "inputs": [
        {
          "internalType": "address",
          "name": "sender",
          "type": "address"
        }
      ],
      "name": "ERC1155InvalidSender",
      "type": "error"
    },
    {
      "inputs": [
        {
          "internalType": "address",
          "name": "operator",
          "type": "address"
        },
        {
          "internalType": "address",
          "name": "owner",
          "type": "address"
        }
      ],
      "name": "ERC1155MissingApprovalForAll",
      "type": "error"
    },
    {
      "inputs": [
        {
          "internalType": "address",
          "name": "owner",
          "type": "address"
        }
      ],
      "name": "OwnableInvalidOwner",
      "type": "error"
    },
    {
      "inputs": [
        {
          "internalType": "address",
          "name": "account",
          "type": "address"
        }
      ],
      "name": "OwnableUnauthorizedAccount",
      "type": "error"
    },
    {
      "anonymous": false,
      "inputs": [
        {
          "indexed": true,
          "internalType": "address",
          "name": "account",
          "type": "address"
        },
        {
          "indexed": true,
          "internalType": "address",
          "name": "operator",
          "type": "address"
        },
        {
          "indexed": false,
          "internalType": "bool",
          "name": "approved",
          "type": "bool"
        }
      ],
      "name": "ApprovalForAll",
      "type": "event"
    },
    {
      "anonymous": false,
      "inputs": [
        {
          "indexed": false,
          "internalType": "address[]",
          "name": "recipients",
          "type": "address[]"
        },
        {
          "indexed": false,
          "internalType": "uint256[]",
          "name": "tokenIds",
          "type": "uint256[]"
        },
        {
          "indexed": false,
          "internalType": "string",
          "name": "metadataUri",
          "type": "string"
        },
        {
          "indexed": false,
          "internalType": "uint256",
          "name": "timestamp",
          "type": "uint256"
        }
      ],
      "name": "BatchNFTMinted",
      "type": "event"
    },
    {
      "anonymous": false,
      "inputs": [
        {
          "indexed": false,
          "internalType": "uint256",
          "name": "oldFee",
          "type": "uint256"
        },
        {
          "indexed": false,
          "internalType": "uint256",
          "name": "newFee",
          "type": "uint256"
        }
      ],
      "name": "MintFeeUpdated",
      "type": "event"
    },
    {
      "anonymous": false,
      "inputs": [
        {
          "indexed": true,
          "internalType": "address",
          "name": "to",
          "type": "address"
        },
        {
          "indexed": true,
          "internalType": "uint256",
          "name": "tokenId",
          "type": "uint256"
        },
        {
          "indexed": false,
          "internalType": "string",
          "name": "metadataUri",
          "type": "string"
        },
        {
          "indexed": false,
          "internalType": "uint256",
          "name": "timestamp",
          "type": "uint256"
        }
      ],
      "name": "NFTMinted",
      "type": "event"
    },
    {
      "anonymous": false,
      "inputs": [
        {
          "indexed": true,
          "internalType": "address",
          "name": "previousOwner",
          "type": "address"
        },
        {
          "indexed": true,
          "internalType": "address",
          "name": "newOwner",
          "type": "address"
        }
      ],
      "name": "OwnershipTransferred",
      "type": "event"
    },
    {
      "anonymous": false,
      "inputs": [
        {
          "indexed": true,
          "internalType": "address",
          "name": "walletAddress",
          "type": "address"
        },
        {
          "indexed": false,
          "internalType": "string",
          "name": "name",
          "type": "string"
        },
        {
          "indexed": false,
          "internalType": "string",
          "name": "role",
          "type": "string"
        },
        {
          "indexed": false,
          "internalType": "uint256",
          "name": "timestamp",
          "type": "uint256"
        }
      ],
      "name": "ProfileCreated",
      "type": "event"
    },
    {
      "anonymous": false,
      "inputs": [
        {
          "indexed": true,
          "internalType": "address",
          "name": "walletAddress",
          "type": "address"
        },
        {
          "indexed": false,
          "internalType": "string",
          "name": "name",
          "type": "string"
        },
        {
          "indexed": false,
          "internalType": "string",
          "name": "role",
          "type": "string"
        },
        {
          "indexed": false,
          "internalType": "uint256",
          "name": "timestamp",
          "type": "uint256"
        }
      ],
      "name": "ProfileUpdated",
      "type": "event"
    },
    {
      "anonymous": false,
      "inputs": [
        {
          "indexed": true,
          "internalType": "address",
          "name": "operator",
          "type": "address"
        },
        {
          "indexed": true,
          "internalType": "address",
          "name": "from",
          "type": "address"
        },
        {
          "indexed": true,
          "internalType": "address",
          "name": "to",
          "type": "address"
        },
        {
          "indexed": false,
          "internalType": "uint256[]",
          "name": "ids",
          "type": "uint256[]"
        },
        {
          "indexed": false,
          "internalType": "uint256[]",
          "name": "values",
          "type": "uint256[]"
        }
      ],
      "name": "TransferBatch",
      "type": "event"
    },
    {
      "anonymous": false,
      "inputs": [
        {
          "indexed": true,
          "internalType": "address",
          "name": "operator",
          "type": "address"
        },
        {
          "indexed": true,
          "internalType": "address",
          "name": "from",
          "type": "address"
        },
        {
          "indexed": true,
          "internalType": "address",
          "name": "to",
          "type": "address"
        },
        {
          "indexed": false,
          "internalType": "uint256",
          "name": "id",
          "type": "uint256"
        },
        {
          "indexed": false,
          "internalType": "uint256",
          "name": "value",
          "type": "uint256"
        }
      ],
      "name": "TransferSingle",
      "type": "event"
    },
    {
      "anonymous": false,
      "inputs": [
        {
          "indexed": false,
          "internalType": "string",
          "name": "value",
          "type": "string"
        },
        {
          "indexed": true,
          "internalType": "uint256",
          "name": "id",
          "type": "uint256"
        }
      ],
      "name": "URI",
      "type": "event"
    },
    {
      "inputs": [],
      "name": "PROFILE_TOKEN_TYPE",
      "outputs": [
        {
          "internalType": "uint256",
          "name": "",
          "type": "uint256"
        }
      ],
      "stateMutability": "view",
      "type": "function"
    },
    {
      "inputs": [
        {
          "internalType": "string",
          "name": "_fileUrl",
          "type": "string"
        }
      ],
      "name": "addFileUrl",
      "outputs": [],
      "stateMutability": "nonpayable",
      "type": "function"
    },
    {
      "inputs": [
        {
          "internalType": "address",
          "name": "account",
          "type": "address"
        },
        {
          "internalType": "uint256",
          "name": "id",
          "type": "uint256"
        }
      ],
      "name": "balanceOf",
      "outputs": [
        {
          "internalType": "uint256",
          "name": "",
          "type": "uint256"
        }
      ],
      "stateMutability": "view",
      "type": "function"
    },
    {
      "inputs": [
        {
          "internalType": "address[]",
          "name": "accounts",
          "type": "address[]"
        },
        {
          "internalType": "uint256[]",
          "name": "ids",
          "type": "uint256[]"
        }
      ],
      "name": "balanceOfBatch",
      "outputs": [
        {
          "internalType": "uint256[]",
          "name": "",
          "type": "uint256[]"
        }
      ],
      "stateMutability": "view",
      "type": "function"
    },
    {
      "inputs": [
        {
          "internalType": "address[]",
          "name": "_recipients",
          "type": "address[]"
        },
        {
          "internalType": "string",
          "name": "_metadataUri",
          "type": "string"
        }
      ],
      "name": "batchMintProfileNFT",
      "outputs": [],
      "stateMutability": "payable",
      "type": "function"
    },
    {
      "inputs": [
        {
          "internalType": "uint256",
          "name": "_recipientCount",
          "type": "uint256"
        }
      ],
      "name": "calculateBatchMintFee",
      "outputs": [
        {
          "internalType": "uint256",
          "name": "",
          "type": "uint256"
        }
      ],
      "stateMutability": "view",
      "type": "function"
    },
    {
      "inputs": [
        {
          "internalType": "string",
          "name": "_name",
          "type": "string"
        },
        {
          "internalType": "string",
          "name": "_role",
          "type": "string"
        },
        {
          "internalType": "string",
          "name": "_introduction",
          "type": "string"
        },
        {
          "internalType": "string",
          "name": "_skills",
          "type": "string"
        },
        {
          "internalType": "string",
          "name": "_contact",
          "type": "string"
        },
        {
          "internalType": "string",
          "name": "_portfolioLink",
          "type": "string"
        },
        {
          "internalType": "string[]",
          "name": "_fileUrls",
          "type": "string[]"
        }
      ],
      "name": "createProfile",
      "outputs": [],
      "stateMutability": "nonpayable",
      "type": "function"
    },
    {
      "inputs": [
        {
          "internalType": "uint256",
          "name": "id",
          "type": "uint256"
        }
      ],
      "name": "exists",
      "outputs": [
        {
          "internalType": "bool",
          "name": "",
          "type": "bool"
        }
      ],
      "stateMutability": "view",
      "type": "function"
    },
    {
      "inputs": [
        {
          "internalType": "address",
          "name": "_walletAddress",
          "type": "address"
        }
      ],
      "name": "getProfileByWallet",
      "outputs": [
        {
          "internalType": "address",
          "name": "walletAddress",
          "type": "address"
        },
        {
          "internalType": "string",
          "name": "name",
          "type": "string"
        },
        {
          "internalType": "string",
          "name": "role",
          "type": "string"
        },
        {
          "internalType": "string",
          "name": "introduction",
          "type": "string"
        },
        {
          "internalType": "string",
          "name": "skills",
          "type": "string"
        },
        {
          "internalType": "string",
          "name": "contact",
          "type": "string"
        },
        {
          "internalType": "string",
          "name": "portfolioLink",
          "type": "string"
        },
        {
          "internalType": "string[]",
          "name": "fileUrls",
          "type": "string[]"
        },
        {
          "internalType": "string",
          "name": "metadataUri",
          "type": "string"
        },
        {
          "internalType": "uint256",
          "name": "timestamp",
          "type": "uint256"
        }
      ],
      "stateMutability": "view",
      "type": "function"
    },
    {
      "inputs": [
        {
          "internalType": "uint256",
          "name": "_tokenId",
          "type": "uint256"
        }
      ],
      "name": "getTokenInfo",
      "outputs": [
        {
          "internalType": "uint256",
          "name": "tokenId",
          "type": "uint256"
        },
        {
          "internalType": "address",
          "name": "tokenOwner",
          "type": "address"
        },
        {
          "internalType": "string",
          "name": "metadataUri",
          "type": "string"
        },
        {
          "internalType": "uint256",
          "name": "mintedAt",
          "type": "uint256"
        },
        {
          "internalType": "uint256",
          "name": "tokenType",
          "type": "uint256"
        }
      ],
      "stateMutability": "view",
      "type": "function"
    },
    {
      "inputs": [
        {
          "internalType": "address",
          "name": "_walletAddress",
          "type": "address"
        }
      ],
      "name": "getUserFileUrls",
      "outputs": [
        {
          "internalType": "string[]",
          "name": "",
          "type": "string[]"
        }
      ],
      "stateMutability": "view",
      "type": "function"
    },
    {
      "inputs": [
        {
          "internalType": "address",
          "name": "_walletAddress",
          "type": "address"
        },
        {
          "internalType": "uint256",
          "name": "_tokenId",
          "type": "uint256"
        }
      ],
      "name": "getUserTokenBalance",
      "outputs": [
        {
          "internalType": "uint256",
          "name": "",
          "type": "uint256"
        }
      ],
      "stateMutability": "view",
      "type": "function"
    },
    {
      "inputs": [
        {
          "internalType": "address",
          "name": "_walletAddress",
          "type": "address"
        },
        {
          "internalType": "uint256[]",
          "name": "_tokenIds",
          "type": "uint256[]"
        }
      ],
      "name": "getUserTokenBalances",
      "outputs": [
        {
          "internalType": "uint256[]",
          "name": "",
          "type": "uint256[]"
        }
      ],
      "stateMutability": "view",
      "type": "function"
    },
    {
      "inputs": [
        {
          "internalType": "address",
          "name": "_walletAddress",
          "type": "address"
        }
      ],
      "name": "getUserTokens",
      "outputs": [
        {
          "internalType": "uint256[]",
          "name": "",
          "type": "uint256[]"
        }
      ],
      "stateMutability": "view",
      "type": "function"
    },
    {
      "inputs": [
        {
          "internalType": "address",
          "name": "account",
          "type": "address"
        },
        {
          "internalType": "address",
          "name": "operator",
          "type": "address"
        }
      ],
      "name": "isApprovedForAll",
      "outputs": [
        {
          "internalType": "bool",
          "name": "",
          "type": "bool"
        }
      ],
      "stateMutability": "view",
      "type": "function"
    },
    {
      "inputs": [],
      "name": "mintFee",
      "outputs": [
        {
          "internalType": "uint256",
          "name": "",
          "type": "uint256"
        }
      ],
      "stateMutability": "view",
      "type": "function"
    },
    {
      "inputs": [
        {
          "internalType": "address",
          "name": "_to",
          "type": "address"
        },
        {
          "internalType": "string",
          "name": "_metadataUri",
          "type": "string"
        }
      ],
      "name": "mintProfileNFT",
      "outputs": [],
      "stateMutability": "payable",
      "type": "function"
    },
    {
      "inputs": [],
      "name": "nextTokenId",
      "outputs": [
        {
          "internalType": "uint256",
          "name": "",
          "type": "uint256"
        }
      ],
      "stateMutability": "view",
      "type": "function"
    },
    {
      "inputs": [
        {
          "internalType": "uint256",
          "name": "",
          "type": "uint256"
        }
      ],
      "name": "nftTokens",
      "outputs": [
        {
          "internalType": "uint256",
          "name": "tokenId",
          "type": "uint256"
        },
        {
          "internalType": "address",
          "name": "owner",
          "type": "address"
        },
        {
          "internalType": "string",
          "name": "metadataUri",
          "type": "string"
        },
        {
          "internalType": "uint256",
          "name": "mintedAt",
          "type": "uint256"
        },
        {
          "internalType": "uint256",
          "name": "tokenType",
          "type": "uint256"
        }
      ],
      "stateMutability": "view",
      "type": "function"
    },
    {
      "inputs": [],
      "name": "owner",
      "outputs": [
        {
          "internalType": "address",
          "name": "",
          "type": "address"
        }
      ],
      "stateMutability": "view",
      "type": "function"
    },
    {
      "inputs": [
        {
          "internalType": "address",
          "name": "_walletAddress",
          "type": "address"
        }
      ],
      "name": "profileExists",
      "outputs": [
        {
          "internalType": "bool",
          "name": "",
          "type": "bool"
        }
      ],
      "stateMutability": "view",
      "type": "function"
    },
    {
      "inputs": [],
      "name": "renounceOwnership",
      "outputs": [],
      "stateMutability": "nonpayable",
      "type": "function"
    },
    {
      "inputs": [
        {
          "internalType": "address",
          "name": "from",
          "type": "address"
        },
        {
          "internalType": "address",
          "name": "to",
          "type": "address"
        },
        {
          "internalType": "uint256[]",
          "name": "ids",
          "type": "uint256[]"
        },
        {
          "internalType": "uint256[]",
          "name": "values",
          "type": "uint256[]"
        },
        {
          "internalType": "bytes",
          "name": "data",
          "type": "bytes"
        }
      ],
      "name": "safeBatchTransferFrom",
      "outputs": [],
      "stateMutability": "nonpayable",
      "type": "function"
    },
    {
      "inputs": [
        {
          "internalType": "address",
          "name": "from",
          "type": "address"
        },
        {
          "internalType": "address",
          "name": "to",
          "type": "address"
        },
        {
          "internalType": "uint256",
          "name": "id",
          "type": "uint256"
        },
        {
          "internalType": "uint256",
          "name": "value",
          "type": "uint256"
        },
        {
          "internalType": "bytes",
          "name": "data",
          "type": "bytes"
        }
      ],
      "name": "safeTransferFrom",
      "outputs": [],
      "stateMutability": "nonpayable",
      "type": "function"
    },
    {
      "inputs": [
        {
          "internalType": "address",
          "name": "operator",
          "type": "address"
        },
        {
          "internalType": "bool",
          "name": "approved",
          "type": "bool"
        }
      ],
      "name": "setApprovalForAll",
      "outputs": [],
      "stateMutability": "nonpayable",
      "type": "function"
    },
    {
      "inputs": [
        {
          "internalType": "uint256",
          "name": "_newFee",
          "type": "uint256"
        }
      ],
      "name": "setMintFee",
      "outputs": [],
      "stateMutability": "nonpayable",
      "type": "function"
    },
    {
      "inputs": [
        {
          "internalType": "uint256",
          "name": "tokenId",
          "type": "uint256"
        },
        {
          "internalType": "string",
          "name": "_tokenURI",
          "type": "string"
        }
      ],
      "name": "setTokenURI",
      "outputs": [],
      "stateMutability": "nonpayable",
      "type": "function"
    },
    {
      "inputs": [
        {
          "internalType": "string",
          "name": "newuri",
          "type": "string"
        }
      ],
      "name": "setURI",
      "outputs": [],
      "stateMutability": "nonpayable",
      "type": "function"
    },
    {
      "inputs": [
        {
          "internalType": "bytes4",
          "name": "interfaceId",
          "type": "bytes4"
        }
      ],
      "name": "supportsInterface",
      "outputs": [
        {
          "internalType": "bool",
          "name": "",
          "type": "bool"
        }
      ],
      "stateMutability": "view",
      "type": "function"
    },
    {
      "inputs": [],
      "name": "totalMintedTokens",
      "outputs": [
        {
          "internalType": "uint256",
          "name": "",
          "type": "uint256"
        }
      ],
      "stateMutability": "view",
      "type": "function"
    },
    {
      "inputs": [],
      "name": "totalSupply",
      "outputs": [
        {
          "internalType": "uint256",
          "name": "",
          "type": "uint256"
        }
      ],
      "stateMutability": "view",
      "type": "function"
    },
    {
      "inputs": [
        {
          "internalType": "uint256",
          "name": "id",
          "type": "uint256"
        }
      ],
      "name": "totalSupply",
      "outputs": [
        {
          "internalType": "uint256",
          "name": "",
          "type": "uint256"
        }
      ],
      "stateMutability": "view",
      "type": "function"
    },
    {
      "inputs": [
        {
          "internalType": "address",
          "name": "newOwner",
          "type": "address"
        }
      ],
      "name": "transferOwnership",
      "outputs": [],
      "stateMutability": "nonpayable",
      "type": "function"
    },
    {
      "inputs": [
        {
          "internalType": "string",
          "name": "_name",
          "type": "string"
        },
        {
          "internalType": "string",
          "name": "_role",
          "type": "string"
        },
        {
          "internalType": "string",
          "name": "_introduction",
          "type": "string"
        },
        {
          "internalType": "string",
          "name": "_skills",
          "type": "string"
        },
        {
          "internalType": "string",
          "name": "_contact",
          "type": "string"
        },
        {
          "internalType": "string",
          "name": "_portfolioLink",
          "type": "string"
        },
        {
          "internalType": "string[]",
          "name": "_fileUrls",
          "type": "string[]"
        }
      ],
      "name": "updateProfile",
      "outputs": [],
      "stateMutability": "nonpayable",
      "type": "function"
    },
    {
      "inputs": [
        {
          "internalType": "uint256",
          "name": "tokenId",
          "type": "uint256"
        }
      ],
      "name": "uri",
      "outputs": [
        {
          "internalType": "string",
          "name": "",
          "type": "string"
        }
      ],
      "stateMutability": "view",
      "type": "function"
    },
    {
      "inputs": [
        {
          "internalType": "address",
          "name": "",
          "type": "address"
        }
      ],
      "name": "userProfiles",
      "outputs": [
        {
          "internalType": "address",
          "name": "walletAddress",
          "type": "address"
        },
        {
          "internalType": "string",
          "name": "name",
          "type": "string"
        },
        {
          "internalType": "string",
          "name": "role",
          "type": "string"
        },
        {
          "internalType": "string",
          "name": "introduction",
          "type": "string"
        },
        {
          "internalType": "string",
          "name": "skills",
          "type": "string"
        },
        {
          "internalType": "string",
          "name": "contact",
          "type": "string"
        },
        {
          "internalType": "string",
          "name": "portfolioLink",
          "type": "string"
        },
        {
          "internalType": "string",
          "name": "metadataUri",
          "type": "string"
        },
        {
          "internalType": "uint256",
          "name": "timestamp",
          "type": "uint256"
        },
        {
          "internalType": "bool",
          "name": "exists",
          "type": "bool"
        }
      ],
      "stateMutability": "view",
      "type": "function"
    },
    {
      "inputs": [
        {
          "internalType": "address",
          "name": "",
          "type": "address"
        },
        {
          "internalType": "uint256",
          "name": "",
          "type": "uint256"
        }
      ],
      "name": "userTokens",
      "outputs": [
        {
          "internalType": "uint256",
          "name": "",
          "type": "uint256"
        }
      ],
      "stateMutability": "view",
      "type": "function"
    },
    {
      "inputs": [],
      "name": "withdraw",
      "outputs": [],
      "stateMutability": "nonpayable",
      "type": "function"
    },
    {
      "stateMutability": "payable",
      "type": "receive"
    }
  ],
  "transactionHash": "0x0d5dbb172961f62c592b1d5d0921a063f3ffb9ea4a0b7036aae7d94614bc60df",
  "args": [
    "0x37354657880288016CB24a6Cba46570F8e604F43"
  ],
  "numDeployments": 1,
  "solcInputHash": "ae55d35cdb4365a4c07bb5ee8fc76f15",
  "bytecode": "0x6080604052600160065560006007553480156200001b57600080fd5b50604051620043e5380380620043e58339810160408190526200003e9162000101565b60408051602081019091526000815281906200005a816200009d565b506001600160a01b0381166200008a57604051631e4fbdf760e01b81526000600482015260240160405180910390fd5b6200009581620000af565b5050620002a4565b6002620000ab8282620001d8565b5050565b600380546001600160a01b038381166001600160a01b0319831681179093556040519116919082907f8be0079c531659141344cd1fd0a4f28419497f9722a3daafe3b4186f6b6457e090600090a35050565b6000602082840312156200011457600080fd5b81516001600160a01b03811681146200012c57600080fd5b9392505050565b634e487b7160e01b600052604160045260246000fd5b600181811c908216806200015e57607f821691505b6020821081036200017f57634e487b7160e01b600052602260045260246000fd5b50919050565b601f821115620001d357600081815260208120601f850160051c81016020861015620001ae5750805b601f850160051c820191505b81811015620001cf57828155600101620001ba565b5050505b505050565b81516001600160401b03811115620001f457620001f462000133565b6200020c8162000205845462000149565b8462000185565b602080601f8311600181146200024457600084156200022b5750858301515b600019600386901b1c1916600185901b178555620001cf565b600085815260208120601f198616915b82811015620002755788860151825594840194600190910190840162000254565b5085821015620002945787850151600019600388901b60f8161c191681555b5050505050600190811b01905550565b61413180620002b46000396000f3fe6080604052600436106102285760003560e01c806375794a3c11610123578063e5830702116100ab578063f242432a1161006f578063f242432a14610691578063f2fde38b146106b1578063f32c13d8146106d1578063f8c13a0014610707578063f9f411d81461071c57600080fd5b8063e5830702146105fe578063e68b094414610611578063e985e9c514610631578063ebd6d6ea14610651578063eddd0d9c1461067157600080fd5b80638da5cb5b116100f25780638da5cb5b146105615780638e32e3161461058957806392f1bbb51461059e578063a22cb465146105be578063bd85b039146105de57600080fd5b806375794a3c146104da578063771fb6fc146104f057806387fd0392146105105780638c7a63ae1461053057600080fd5b8063332d56d7116101b15780634e1273f4116101755780634e1273f4146104385780634f558e7914610458578063519dc8d2146104785780635f92bd2814610498578063715018a6146104c557600080fd5b8063332d56d71461038d57806339691879146103c35780633aeb88ee146103d65780633ccfd60b146103f6578063455dbbfb1461040b57600080fd5b80630e89341c116101f85780630e89341c146102f557806313966db514610322578063162094c41461033857806318160ddd146103585780632eb2c2d61461036d57600080fd5b8062fdd58e1461023457806301ffc9a71461026757806302fe53051461029757806305cfa06f146102b957600080fd5b3661022f57005b600080fd5b34801561024057600080fd5b5061025461024f3660046132c5565b61073c565b6040519081526020015b60405180910390f35b34801561027357600080fd5b50610287610282366004613305565b610764565b604051901515815260200161025e565b3480156102a357600080fd5b506102b76102b23660046133d7565b61076f565b005b3480156102c557600080fd5b506102876102d436600461340b565b6001600160a01b03166000908152600860205260409020600a015460ff1690565b34801561030157600080fd5b50610315610310366004613426565b610783565b60405161025e9190613485565b34801561032e57600080fd5b5061025460075481565b34801561034457600080fd5b506102b7610353366004613498565b6108a9565b34801561036457600080fd5b50600554610254565b34801561037957600080fd5b506102b761038836600461356c565b610931565b34801561039957600080fd5b506103ad6103a836600461340b565b610998565b60405161025e9a99989796959493929190613615565b6102b76103d1366004613735565b610dab565b3480156103e257600080fd5b506102b76103f136600461380d565b6112a8565b34801561040257600080fd5b506102b761157c565b34801561041757600080fd5b5061042b610426366004613927565b61162f565b60405161025e91906139a5565b34801561044457600080fd5b5061042b6104533660046139b8565b6116d4565b34801561046457600080fd5b50610287610473366004613426565b6117a8565b34801561048457600080fd5b5061042b61049336600461340b565b6117b3565b3480156104a457600080fd5b506104b86104b336600461340b565b61181f565b60405161025e9190613a66565b3480156104d157600080fd5b506102b761194a565b3480156104e657600080fd5b5061025460065481565b3480156104fc57600080fd5b5061025461050b3660046132c5565b61195e565b34801561051c57600080fd5b506102b761052b3660046133d7565b61196a565b34801561053c57600080fd5b5061055061054b366004613426565b611a19565b60405161025e959493929190613a79565b34801561056d57600080fd5b506003546040516001600160a01b03909116815260200161025e565b34801561059557600080fd5b50610254611b78565b3480156105aa57600080fd5b506102b76105b936600461380d565b611b8e565b3480156105ca57600080fd5b506102b76105d9366004613ab7565b611d1f565b3480156105ea57600080fd5b506102546105f9366004613426565b611d2e565b6102b761060c366004613af3565b611d42565b34801561061d57600080fd5b5061055061062c366004613426565b611fd3565b34801561063d57600080fd5b5061028761064c366004613b2a565b612094565b34801561065d57600080fd5b5061025461066c366004613426565b6120c2565b34801561067d57600080fd5b506102b761068c366004613426565b6120d2565b34801561069d57600080fd5b506102b76106ac366004613b5d565b61211f565b3480156106bd57600080fd5b506102b76106cc36600461340b565b61217e565b3480156106dd57600080fd5b506106f16106ec36600461340b565b6121b9565b60405161025e9a99989796959493929190613bc1565b34801561071357600080fd5b50610254600181565b34801561072857600080fd5b506102546107373660046132c5565b612790565b6000818152602081815260408083206001600160a01b03861684529091529020545b92915050565b600061075e826127c1565b610777612811565b6107808161283e565b50565b606061078e826117a8565b6107f05760405162461bcd60e51b815260206004820152602860248201527f455243313135353a2055524920717565727920666f72206e6f6e657869737465604482015267373a103a37b5b2b760c11b60648201526084015b60405180910390fd5b6000828152600b60205260408120805461080990613c8c565b80601f016020809104026020016040519081016040528092919081815260200182805461083590613c8c565b80156108825780601f1061085757610100808354040283529160200191610882565b820191906000526020600020905b81548152906001019060200180831161086557829003601f168201915b505050505090506000815111156108995792915050565b6108a28361284a565b9392505050565b6108b1612811565b6108ba826117a8565b6109145760405162461bcd60e51b815260206004820152602560248201527f455243313135353a2055524920736574206f66206e6f6e6578697374656e74206044820152643a37b5b2b760d91b60648201526084016107e7565b6000828152600b6020526040902061092c8282613d0c565b505050565b336001600160a01b038616811480159061095257506109508682612094565b155b156109835760405163711bec9160e11b81526001600160a01b038083166004830152871660248201526044016107e7565b61099086868686866128d4565b505050505050565b600860205260009081526040902080546001820180546001600160a01b0390921692916109c490613c8c565b80601f01602080910402602001604051908101604052809291908181526020018280546109f090613c8c565b8015610a3d5780601f10610a1257610100808354040283529160200191610a3d565b820191906000526020600020905b815481529060010190602001808311610a2057829003601f168201915b505050505090806002018054610a5290613c8c565b80601f0160208091040260200160405190810160405280929190818152602001828054610a7e90613c8c565b8015610acb5780601f10610aa057610100808354040283529160200191610acb565b820191906000526020600020905b815481529060010190602001808311610aae57829003601f168201915b505050505090806003018054610ae090613c8c565b80601f0160208091040260200160405190810160405280929190818152602001828054610b0c90613c8c565b8015610b595780601f10610b2e57610100808354040283529160200191610b59565b820191906000526020600020905b815481529060010190602001808311610b3c57829003601f168201915b505050505090806004018054610b6e90613c8c565b80601f0160208091040260200160405190810160405280929190818152602001828054610b9a90613c8c565b8015610be75780601f10610bbc57610100808354040283529160200191610be7565b820191906000526020600020905b815481529060010190602001808311610bca57829003601f168201915b505050505090806005018054610bfc90613c8c565b80601f0160208091040260200160405190810160405280929190818152602001828054610c2890613c8c565b8015610c755780601f10610c4a57610100808354040283529160200191610c75565b820191906000526020600020905b815481529060010190602001808311610c5857829003601f168201915b505050505090806006018054610c8a90613c8c565b80601f0160208091040260200160405190810160405280929190818152602001828054610cb690613c8c565b8015610d035780601f10610cd857610100808354040283529160200191610d03565b820191906000526020600020905b815481529060010190602001808311610ce657829003601f168201915b505050505090806008018054610d1890613c8c565b80601f0160208091040260200160405190810160405280929190818152602001828054610d4490613c8c565b8015610d915780601f10610d6657610100808354040283529160200191610d91565b820191906000526020600020905b815481529060010190602001808311610d7457829003601f168201915b505050506009830154600a9093015491929160ff1690508a565b6000825111610dfc5760405162461bcd60e51b815260206004820181905260248201527f526563697069656e74732061727261792063616e6e6f7420626520656d70747960448201526064016107e7565b8151600754610e0b9190613de1565b341015610e5a5760405162461bcd60e51b815260206004820152601f60248201527f496e73756666696369656e74206d696e742066656520666f722062617463680060448201526064016107e7565b6000815111610eab5760405162461bcd60e51b815260206004820152601c60248201527f4d65746164617461205552492063616e6e6f7420626520656d7074790000000060448201526064016107e7565b600082516001600160401b03811115610ec657610ec6613322565b604051908082528060200260200182016040528015610eef578160200160208202803683370190505b509050600083516001600160401b03811115610f0d57610f0d613322565b604051908082528060200260200182016040528015610f36578160200160208202803683370190505b50905060005b84518110156111a7576000858281518110610f5957610f59613df8565b6020026020010151905060006001600160a01b0316816001600160a01b031603610fc55760405162461bcd60e51b815260206004820152601960248201527f496e76616c696420726563697069656e7420616464726573730000000000000060448201526064016107e7565b6001600160a01b0381166000908152600860205260409020600a015460ff166110305760405162461bcd60e51b815260206004820181905260248201527f526563697069656e742070726f66696c6520646f6573206e6f7420657869737460448201526064016107e7565b60068054908190600061104283613e0e565b91905055508085848151811061105a5761105a613df8565b602002602001018181525050600184848151811061107a5761107a613df8565b6020908102919091018101919091526040805160a0810182528381526001600160a01b038581168285019081528284018b8152426060850152600160808501819052600088815260099097529490952083518155905193810180546001600160a01b03191694909216939093179055915160028201906110fa9082613d0c565b50606082015160038201556080909101516004909101556000818152600b602052604090206111298782613d0c565b506001600160a01b0382166000818152600a602090815260408083208054600181018255908452828420018590559282526008908190529190200161116e8782613d0c565b506111926040518060600160405280603281526020016140ca60329139828461293b565b5050808061119f90613e0e565b915050610f3c565b506111dd846000815181106111be576111be613df8565b6020026020010151838360405180602001604052806000815250612982565b60015b845181101561126457611252856000815181106111ff576111ff613df8565b602002602001015186838151811061121957611219613df8565b602002602001015185848151811061123357611233613df8565b60200260200101516001604051806020016040528060008152506129c0565b8061125c81613e0e565b9150506111e0565b507f598e9cb1b24d320d7ae56243b518101dec739d3779ec78a6f8c0a288cc5d8e058483854260405161129a9493929190613e27565b60405180910390a150505050565b336000908152600860205260409020600a015460ff16156113045760405162461bcd60e51b815260206004820152601660248201527550726f66696c6520616c72656164792065786973747360501b60448201526064016107e7565b600087511161134c5760405162461bcd60e51b81526020600482015260146024820152734e616d652063616e6e6f7420626520656d70747960601b60448201526064016107e7565b60008651116113945760405162461bcd60e51b8152602060048201526014602482015273526f6c652063616e6e6f7420626520656d70747960601b60448201526064016107e7565b6113d36040518060400160405280601f81526020017f4372656174696e672070726f66696c6520666f722077616c6c65743a2025730081525033612a4e565b60408051610160810182523380825260208083018b81528385018b9052606084018a90526080840189905260a0840188905260c0840187905260e0840186905284518083018652600080825261010086019190915242610120860152600161014086018190529381526008909252939020825181546001600160a01b0319166001600160a01b039091161781559251919291908201906114739082613d0c565b50604082015160028201906114889082613d0c565b506060820151600382019061149d9082613d0c565b50608082015160048201906114b29082613d0c565b5060a082015160058201906114c79082613d0c565b5060c082015160068201906114dc9082613d0c565b5060e082015180516114f89160078401916020909101906131ec565b50610100820151600882019061150e9082613d0c565b50610120820151600982015561014090910151600a909101805460ff191691151591909117905560405133907f729d3664274983d1d1b3255dd990736babd877454af86fdbd7a33e4dbd175c289061156b908a908a904290613ea4565b60405180910390a250505050505050565b611584612811565b60006115986003546001600160a01b031690565b6001600160a01b03164760405160006040518083038185875af1925050503d80600081146115e2576040519150601f19603f3d011682016040523d82523d6000602084013e6115e7565b606091505b50509050806107805760405162461bcd60e51b81526020600482015260146024820152732330b4b632b2103a379039b2b7321022ba3432b960611b60448201526064016107e7565b6060600082516001600160401b0381111561164c5761164c613322565b604051908082528060200260200182016040528015611675578160200160208202803683370190505b50905060005b83518110156116c1578482828151811061169757611697613df8565b6001600160a01b0390921660209283029190910190910152806116b981613e0e565b91505061167b565b506116cc81846116d4565b949350505050565b606081518351146117055781518351604051635b05999160e01b8152600481019290925260248201526044016107e7565b600083516001600160401b0381111561172057611720613322565b604051908082528060200260200182016040528015611749578160200160208202803683370190505b50905060005b84518110156117a0576020808202860101516117739060208084028701015161073c565b82828151811061178557611785613df8565b602090810291909101015261179981613e0e565b905061174f565b509392505050565b600061075e82612a93565b6001600160a01b0381166000908152600a602090815260409182902080548351818402810184019094528084526060939283018282801561181357602002820191906000526020600020905b8154815260200190600101908083116117ff575b50505050509050919050565b6001600160a01b0381166000908152600860205260409020600a015460609060ff1661185d5760405162461bcd60e51b81526004016107e790613eda565b6001600160a01b038216600090815260086020908152604080832060070180548251818502810185019093528083529193909284015b8282101561193f5783829060005260206000200180546118b290613c8c565b80601f01602080910402602001604051908101604052809291908181526020018280546118de90613c8c565b801561192b5780601f106119005761010080835404028352916020019161192b565b820191906000526020600020905b81548152906001019060200180831161190e57829003601f168201915b505050505081526020019060010190611893565b505050509050919050565b611952612811565b61195c6000612aa6565b565b60006108a2838361073c565b336000818152600860205260409020600a015460ff1661199c5760405162461bcd60e51b81526004016107e790613eda565b60008251116119ed5760405162461bcd60e51b815260206004820152601860248201527f46696c652055524c2063616e6e6f7420626520656d707479000000000000000060448201526064016107e7565b3360009081526008602090815260408220600701805460018101825590835291200161092c8382613d0c565b6000806060600080611a2a866117a8565b611a6d5760405162461bcd60e51b8152602060048201526014602482015273151bdad95b88191bd95cc81b9bdd08195e1a5cdd60621b60448201526064016107e7565b6000868152600960209081526040808320815160a0810183528154815260018201546001600160a01b0316938101939093526002810180549192840191611ab390613c8c565b80601f0160208091040260200160405190810160405280929190818152602001828054611adf90613c8c565b8015611b2c5780601f10611b0157610100808354040283529160200191611b2c565b820191906000526020600020905b815481529060010190602001808311611b0f57829003601f168201915b5050505050815260200160038201548152602001600482015481525050905080600001518160200151826040015183606001518460800151955095509550955095505091939590929450565b60006001600654611b899190613f0a565b905090565b336000818152600860205260409020600a015460ff16611bc05760405162461bcd60e51b81526004016107e790613eda565b6000885111611c085760405162461bcd60e51b81526020600482015260146024820152734e616d652063616e6e6f7420626520656d70747960601b60448201526064016107e7565b6000875111611c505760405162461bcd60e51b8152602060048201526014602482015273526f6c652063616e6e6f7420626520656d70747960601b60448201526064016107e7565b33600090815260086020526040902060018101611c6d8a82613d0c565b5060028101611c7c8982613d0c565b5060038101611c8b8882613d0c565b5060048101611c9a8782613d0c565b5060058101611ca98682613d0c565b5060068101611cb88582613d0c565b508251611cce90600783019060208601906131ec565b50336001600160a01b03167f5234a1fe3b86530be73aaef6a7669881e2a8ba277dab36c7e7fa7ac54646d9f28a8a42604051611d0c93929190613ea4565b60405180910390a2505050505050505050565b611d2a338383612af8565b5050565b60008181526004602052604081205461075e565b600754341015611d8c5760405162461bcd60e51b8152602060048201526015602482015274496e73756666696369656e74206d696e742066656560581b60448201526064016107e7565b6000815111611ddd5760405162461bcd60e51b815260206004820152601c60248201527f4d65746164617461205552492063616e6e6f7420626520656d7074790000000060448201526064016107e7565b6001600160a01b0382166000908152600860205260409020600a015460ff16611e485760405162461bcd60e51b815260206004820181905260248201527f526563697069656e742070726f66696c6520646f6573206e6f7420657869737460448201526064016107e7565b600680549081906000611e5a83613e0e565b9190505550611e7b8382600160405180602001604052806000815250612b86565b6040805160a0810182528281526001600160a01b038581166020808401918252838501878152426060860152600160808601819052600088815260099093529590912084518155915194820180546001600160a01b031916959093169490941790915591519091906002820190611ef29082613d0c565b50606082015160038201556080909101516004909101556000818152600b60205260409020611f218382613d0c565b506001600160a01b0383166000818152600a6020908152604080832080546001810182559084528284200185905592825260089081905291902001611f668382613d0c565b50611f8a6040518060600160405280602c815260200161409e602c9139828561293b565b80836001600160a01b03167f7f9dd5d8fa69e733db2277a568b65a9651a3042da18fb2b5ea1966d3891cbfda8442604051611fc6929190613f1d565b60405180910390a3505050565b60096020526000908152604090208054600182015460028301805492936001600160a01b039092169261200590613c8c565b80601f016020809104026020016040519081016040528092919081815260200182805461203190613c8c565b801561207e5780601f106120535761010080835404028352916020019161207e565b820191906000526020600020905b81548152906001019060200180831161206157829003601f168201915b5050505050908060030154908060040154905085565b6001600160a01b03918216600090815260016020908152604080832093909416825291909152205460ff1690565b60008160075461075e9190613de1565b6120da612811565b600780549082905560408051828152602081018490527f7864bf708cae822050e5f50960a0de31bd6fe7620a8f67a48582fb95f29c114a910160405180910390a15050565b336001600160a01b0386168114801590612140575061213e8682612094565b155b156121715760405163711bec9160e11b81526001600160a01b038083166004830152871660248201526044016107e7565b61099086868686866129c0565b612186612811565b6001600160a01b0381166121b057604051631e4fbdf760e01b8152600060048201526024016107e7565b61078081612aa6565b6001600160a01b0381166000908152600860205260408120600a01546060908190819081908190819081908190899060ff166122075760405162461bcd60e51b81526004016107e790613eda565b6001600160a01b03808c166000908152600860209081526040808320815161016081019092528054909416815260018401805493949193919284019161224c90613c8c565b80601f016020809104026020016040519081016040528092919081815260200182805461227890613c8c565b80156122c55780601f1061229a576101008083540402835291602001916122c5565b820191906000526020600020905b8154815290600101906020018083116122a857829003601f168201915b505050505081526020016002820180546122de90613c8c565b80601f016020809104026020016040519081016040528092919081815260200182805461230a90613c8c565b80156123575780601f1061232c57610100808354040283529160200191612357565b820191906000526020600020905b81548152906001019060200180831161233a57829003601f168201915b5050505050815260200160038201805461237090613c8c565b80601f016020809104026020016040519081016040528092919081815260200182805461239c90613c8c565b80156123e95780601f106123be576101008083540402835291602001916123e9565b820191906000526020600020905b8154815290600101906020018083116123cc57829003601f168201915b5050505050815260200160048201805461240290613c8c565b80601f016020809104026020016040519081016040528092919081815260200182805461242e90613c8c565b801561247b5780601f106124505761010080835404028352916020019161247b565b820191906000526020600020905b81548152906001019060200180831161245e57829003601f168201915b5050505050815260200160058201805461249490613c8c565b80601f01602080910402602001604051908101604052809291908181526020018280546124c090613c8c565b801561250d5780601f106124e25761010080835404028352916020019161250d565b820191906000526020600020905b8154815290600101906020018083116124f057829003601f168201915b5050505050815260200160068201805461252690613c8c565b80601f016020809104026020016040519081016040528092919081815260200182805461255290613c8c565b801561259f5780601f106125745761010080835404028352916020019161259f565b820191906000526020600020905b81548152906001019060200180831161258257829003601f168201915b5050505050815260200160078201805480602002602001604051908101604052809291908181526020016000905b828210156126795783829060005260206000200180546125ec90613c8c565b80601f016020809104026020016040519081016040528092919081815260200182805461261890613c8c565b80156126655780601f1061263a57610100808354040283529160200191612665565b820191906000526020600020905b81548152906001019060200180831161264857829003601f168201915b5050505050815260200190600101906125cd565b50505050815260200160088201805461269190613c8c565b80601f01602080910402602001604051908101604052809291908181526020018280546126bd90613c8c565b801561270a5780601f106126df5761010080835404028352916020019161270a565b820191906000526020600020905b8154815290600101906020018083116126ed57829003601f168201915b5050505050815260200160098201548152602001600a820160009054906101000a900460ff1615151515815250509050806000015181602001518260400151836060015184608001518560a001518660c001518760e001518861010001518961012001519a509a509a509a509a509a509a509a509a509a50509193959799509193959799565b600a60205281600052604060002081815481106127ac57600080fd5b90600052602060002001600091509150505481565b60006001600160e01b03198216636cdb3d1360e11b14806127f257506001600160e01b031982166303a24d0760e21b145b8061075e57506301ffc9a760e01b6001600160e01b031983161461075e565b6003546001600160a01b0316331461195c5760405163118cdaa760e01b81523360048201526024016107e7565b6002611d2a8282613d0c565b60606002805461285990613c8c565b80601f016020809104026020016040519081016040528092919081815260200182805461288590613c8c565b80156118135780601f106128a757610100808354040283529160200191611813565b820191906000526020600020905b8154815290600101906020018083116128b55750939695505050505050565b6001600160a01b0384166128fe57604051632bfa23e760e11b8152600060048201526024016107e7565b6001600160a01b03851661292757604051626a0d4560e21b8152600060048201526024016107e7565b6129348585858585612bdf565b5050505050565b61092c83838360405160240161295393929190613f3f565b60408051601f198184030181529190526020810180516001600160e01b031663038fd88960e31b179052612c32565b6001600160a01b0384166129ac57604051632bfa23e760e11b8152600060048201526024016107e7565b6129ba600085858585612bdf565b50505050565b6001600160a01b0384166129ea57604051632bfa23e760e11b8152600060048201526024016107e7565b6001600160a01b038516612a1357604051626a0d4560e21b8152600060048201526024016107e7565b60408051600180825260208201869052818301908152606082018590526080820190925290612a458787848487612bdf565b50505050505050565b611d2a8282604051602401612a64929190613f72565b60408051601f198184030181529190526020810180516001600160e01b031663319af33360e01b179052612c32565b600080612a9f83611d2e565b1192915050565b600380546001600160a01b038381166001600160a01b0319831681179093556040519116919082907f8be0079c531659141344cd1fd0a4f28419497f9722a3daafe3b4186f6b6457e090600090a35050565b6001600160a01b038216612b215760405162ced3e160e81b8152600060048201526024016107e7565b6001600160a01b03838116600081815260016020908152604080832094871680845294825291829020805460ff191686151590811790915591519182527f17307eab39ab6107e8899845ad3d59bd9653f200f220920489ca2b5937696c319101611fc6565b6001600160a01b038416612bb057604051632bfa23e760e11b8152600060048201526024016107e7565b604080516001808252602082018690528183019081526060820185905260808201909252906109906000878484875b612beb85858585612c3b565b6001600160a01b038416156129345782513390600103612c245760208481015190840151612c1d838989858589612c47565b5050610990565b610990818787878787612d6b565b61078081612e54565b6129ba84848484612e75565b6001600160a01b0384163b156109905760405163f23a6e6160e01b81526001600160a01b0385169063f23a6e6190612c8b9089908990889088908890600401613f9c565b6020604051808303816000875af1925050508015612cc6575060408051601f3d908101601f19168201909252612cc391810190613fe1565b60015b612d2f573d808015612cf4576040519150601f19603f3d011682016040523d82523d6000602084013e612cf9565b606091505b508051600003612d2757604051632bfa23e760e11b81526001600160a01b03861660048201526024016107e7565b805181602001fd5b6001600160e01b0319811663f23a6e6160e01b14612a4557604051632bfa23e760e11b81526001600160a01b03861660048201526024016107e7565b6001600160a01b0384163b156109905760405163bc197c8160e01b81526001600160a01b0385169063bc197c8190612daf9089908990889088908890600401613ffe565b6020604051808303816000875af1925050508015612dea575060408051601f3d908101601f19168201909252612de791810190613fe1565b60015b612e18573d808015612cf4576040519150601f19603f3d011682016040523d82523d6000602084013e612cf9565b6001600160e01b0319811663bc197c8160e01b14612a4557604051632bfa23e760e11b81526001600160a01b03861660048201526024016107e7565b60006a636f6e736f6c652e6c6f679050600080835160208501845afa505050565b612e8184848484612fcf565b6001600160a01b038416612f34576000805b8351811015612f1a576000838281518110612eb057612eb0613df8565b602002602001015190508060046000878581518110612ed157612ed1613df8565b602002602001015181526020019081526020016000206000828254612ef6919061405c565b90915550612f069050818461405c565b92505080612f1390613e0e565b9050612e93565b508060056000828254612f2d919061405c565b9091555050505b6001600160a01b0383166129ba576000805b8351811015612fbe576000838281518110612f6357612f63613df8565b602002602001015190508060046000878581518110612f8457612f84613df8565b602002602001015181526020019081526020016000206000828254039250508190555080830192505080612fb790613e0e565b9050612f46565b506005805491909103905550505050565b8051825114612ffe5781518151604051635b05999160e01b8152600481019290925260248201526044016107e7565b3360005b835181101561310d576020818102858101820151908501909101516001600160a01b038816156130b5576000828152602081815260408083206001600160a01b038c1684529091529020548181101561308e576040516303dee4c560e01b81526001600160a01b038a1660048201526024810182905260448101839052606481018490526084016107e7565b6000838152602081815260408083206001600160a01b038d16845290915290209082900390555b6001600160a01b038716156130fa576000828152602081815260408083206001600160a01b038b168452909152812080548392906130f490849061405c565b90915550505b50508061310690613e0e565b9050613002565b50825160010361318e5760208301516000906020840151909150856001600160a01b0316876001600160a01b0316846001600160a01b03167fc3d58168c5ae7397731d063d5bbf3d657854427343f4c083240f7aacaa2d0f62858560405161317f929190918252602082015260400190565b60405180910390a45050612934565b836001600160a01b0316856001600160a01b0316826001600160a01b03167f4a39dc06d4c0dbc64b70af90fd698a233a518aa5d07e595d983b8c0526c8f7fb86866040516131dd92919061406f565b60405180910390a45050505050565b828054828255906000526020600020908101928215613232579160200282015b8281111561323257825182906132229082613d0c565b509160200191906001019061320c565b5061323e929150613242565b5090565b8082111561323e576000613256828261325f565b50600101613242565b50805461326b90613c8c565b6000825580601f1061327b575050565b601f01602090049060005260206000209081019061078091905b8082111561323e5760008155600101613295565b80356001600160a01b03811681146132c057600080fd5b919050565b600080604083850312156132d857600080fd5b6132e1836132a9565b946020939093013593505050565b6001600160e01b03198116811461078057600080fd5b60006020828403121561331757600080fd5b81356108a2816132ef565b634e487b7160e01b600052604160045260246000fd5b604051601f8201601f191681016001600160401b038111828210171561336057613360613322565b604052919050565b600082601f83011261337957600080fd5b81356001600160401b0381111561339257613392613322565b6133a5601f8201601f1916602001613338565b8181528460208386010111156133ba57600080fd5b816020850160208301376000918101602001919091529392505050565b6000602082840312156133e957600080fd5b81356001600160401b038111156133ff57600080fd5b6116cc84828501613368565b60006020828403121561341d57600080fd5b6108a2826132a9565b60006020828403121561343857600080fd5b5035919050565b6000815180845260005b8181101561346557602081850181015186830182015201613449565b506000602082860101526020601f19601f83011685010191505092915050565b6020815260006108a2602083018461343f565b600080604083850312156134ab57600080fd5b8235915060208301356001600160401b038111156134c857600080fd5b6134d485828601613368565b9150509250929050565b60006001600160401b038211156134f7576134f7613322565b5060051b60200190565b600082601f83011261351257600080fd5b81356020613527613522836134de565b613338565b82815260059290921b8401810191818101908684111561354657600080fd5b8286015b84811015613561578035835291830191830161354a565b509695505050505050565b600080600080600060a0868803121561358457600080fd5b61358d866132a9565b945061359b602087016132a9565b935060408601356001600160401b03808211156135b757600080fd5b6135c389838a01613501565b945060608801359150808211156135d957600080fd5b6135e589838a01613501565b935060808801359150808211156135fb57600080fd5b5061360888828901613368565b9150509295509295909350565b6001600160a01b038b1681526101406020820181905260009061363a8382018d61343f565b9050828103604084015261364e818c61343f565b90508281036060840152613662818b61343f565b90508281036080840152613676818a61343f565b905082810360a084015261368a818961343f565b905082810360c084015261369e818861343f565b905082810360e08401526136b2818761343f565b61010084019590955250509015156101209091015298975050505050505050565b600082601f8301126136e457600080fd5b813560206136f4613522836134de565b82815260059290921b8401810191818101908684111561371357600080fd5b8286015b8481101561356157613728816132a9565b8352918301918301613717565b6000806040838503121561374857600080fd5b82356001600160401b038082111561375f57600080fd5b61376b868387016136d3565b9350602085013591508082111561378157600080fd5b506134d485828601613368565b600082601f83011261379f57600080fd5b813560206137af613522836134de565b82815260059290921b840181019181810190868411156137ce57600080fd5b8286015b848110156135615780356001600160401b038111156137f15760008081fd5b6137ff8986838b0101613368565b8452509183019183016137d2565b600080600080600080600060e0888a03121561382857600080fd5b87356001600160401b038082111561383f57600080fd5b61384b8b838c01613368565b985060208a013591508082111561386157600080fd5b61386d8b838c01613368565b975060408a013591508082111561388357600080fd5b61388f8b838c01613368565b965060608a01359150808211156138a557600080fd5b6138b18b838c01613368565b955060808a01359150808211156138c757600080fd5b6138d38b838c01613368565b945060a08a01359150808211156138e957600080fd5b6138f58b838c01613368565b935060c08a013591508082111561390b57600080fd5b506139188a828b0161378e565b91505092959891949750929550565b6000806040838503121561393a57600080fd5b613943836132a9565b915060208301356001600160401b0381111561395e57600080fd5b6134d485828601613501565b600081518084526020808501945080840160005b8381101561399a5781518752958201959082019060010161397e565b509495945050505050565b6020815260006108a2602083018461396a565b600080604083850312156139cb57600080fd5b82356001600160401b03808211156139e257600080fd5b6139ee868387016136d3565b93506020850135915080821115613a0457600080fd5b506134d485828601613501565b600081518084526020808501808196508360051b8101915082860160005b85811015613a59578284038952613a4784835161343f565b98850198935090840190600101613a2f565b5091979650505050505050565b6020815260006108a26020830184613a11565b8581526001600160a01b038516602082015260a060408201819052600090613aa39083018661343f565b606083019490945250608001529392505050565b60008060408385031215613aca57600080fd5b613ad3836132a9565b915060208301358015158114613ae857600080fd5b809150509250929050565b60008060408385031215613b0657600080fd5b613b0f836132a9565b915060208301356001600160401b038111156134c857600080fd5b60008060408385031215613b3d57600080fd5b613b46836132a9565b9150613b54602084016132a9565b90509250929050565b600080600080600060a08688031215613b7557600080fd5b613b7e866132a9565b9450613b8c602087016132a9565b9350604086013592506060860135915060808601356001600160401b03811115613bb557600080fd5b61360888828901613368565b6001600160a01b038b16815261014060208201819052600090613be68382018d61343f565b90508281036040840152613bfa818c61343f565b90508281036060840152613c0e818b61343f565b90508281036080840152613c22818a61343f565b905082810360a0840152613c36818961343f565b905082810360c0840152613c4a818861343f565b905082810360e0840152613c5e8187613a11565b9050828103610100840152613c73818661343f565b915050826101208301529b9a5050505050505050505050565b600181811c90821680613ca057607f821691505b602082108103613cc057634e487b7160e01b600052602260045260246000fd5b50919050565b601f82111561092c57600081815260208120601f850160051c81016020861015613ced5750805b601f850160051c820191505b8181101561099057828155600101613cf9565b81516001600160401b03811115613d2557613d25613322565b613d3981613d338454613c8c565b84613cc6565b602080601f831160018114613d6e5760008415613d565750858301515b600019600386901b1c1916600185901b178555610990565b600085815260208120601f198616915b82811015613d9d57888601518255948401946001909101908401613d7e565b5085821015613dbb5787850151600019600388901b60f8161c191681555b5050505050600190811b01905550565b634e487b7160e01b600052601160045260246000fd5b808202811582820484141761075e5761075e613dcb565b634e487b7160e01b600052603260045260246000fd5b600060018201613e2057613e20613dcb565b5060010190565b6080808252855190820181905260009060209060a0840190828901845b82811015613e695781516001600160a01b031684529284019290840190600101613e44565b50505083810382850152613e7d818861396a565b9150508281036040840152613e92818661343f565b91505082606083015295945050505050565b606081526000613eb7606083018661343f565b8281036020840152613ec9818661343f565b915050826040830152949350505050565b602080825260169082015275141c9bd99a5b1948191bd95cc81b9bdd08195e1a5cdd60521b604082015260600190565b8181038181111561075e5761075e613dcb565b604081526000613f30604083018561343f565b90508260208301529392505050565b606081526000613f52606083018661343f565b6020830194909452506001600160a01b0391909116604090910152919050565b604081526000613f85604083018561343f565b905060018060a01b03831660208301529392505050565b6001600160a01b03868116825285166020820152604081018490526060810183905260a060808201819052600090613fd69083018461343f565b979650505050505050565b600060208284031215613ff357600080fd5b81516108a2816132ef565b6001600160a01b0386811682528516602082015260a06040820181905260009061402a9083018661396a565b828103606084015261403c818661396a565b90508281036080840152614050818561343f565b98975050505050505050565b8082018082111561075e5761075e613dcb565b604081526000614082604083018561396a565b8281036020840152614094818561396a565b9594505050505056fe4d696e74696e672045524331313535204e465420746f6b656e49643a20257320666f7220757365723a2025734261746368206d696e74696e672045524331313535204e465420746f6b656e49643a20257320666f7220757365723a202573a26469706673582212200ca817585ad583f942d73a17b660376efbb28c09224eb81dbde42c99313031c064736f6c63430008140033",
  "devdoc": {
    "author": "BuidlGuidl",
    "errors": {
      "ERC1155InsufficientBalance(address,uint256,uint256,uint256)": [
        {
          "details": "Indicates an error related to the current `balance` of a `sender`. Used in transfers.",
          "params": {
            "balance": "Current balance for the interacting account.",
            "needed": "Minimum amount required to perform a transfer.",
            "sender": "Address whose tokens are being transferred.",
            "tokenId": "Identifier number of a token."
          }
        }
      ],
      "ERC1155InvalidApprover(address)": [
        {
          "details": "Indicates a failure with the `approver` of a token to be approved. Used in approvals.",
          "params": {
            "approver": "Address initiating an approval operation."
          }
        }
      ],
      "ERC1155InvalidArrayLength(uint256,uint256)": [
        {
          "details": "Indicates an array length mismatch between ids and values in a safeBatchTransferFrom operation. Used in batch transfers.",
          "params": {
            "idsLength": "Length of the array of token identifiers",
            "valuesLength": "Length of the array of token amounts"
          }
        }
      ],
      "ERC1155InvalidOperator(address)": [
        {
          "details": "Indicates a failure with the `operator` to be approved. Used in approvals.",
          "params": {
            "operator": "Address that may be allowed to operate on tokens without being their owner."
          }
        }
      ],
      "ERC1155InvalidReceiver(address)": [
        {
          "details": "Indicates a failure with the token `receiver`. Used in transfers.",
          "params": {
            "receiver": "Address to which tokens are being transferred."
          }
        }
      ],
      "ERC1155InvalidSender(address)": [
        {
          "details": "Indicates a failure with the token `sender`. Used in transfers.",
          "params": {
            "sender": "Address whose tokens are being transferred."
          }
        }
      ],
      "ERC1155MissingApprovalForAll(address,address)": [
        {
          "details": "Indicates a failure with the `operator`s approval. Used in transfers.",
          "params": {
            "operator": "Address that may be allowed to operate on tokens without being their owner.",
            "owner": "Address of the current owner of a token."
          }
        }
      ],
      "OwnableInvalidOwner(address)": [
        {
          "details": "The owner is not a valid owner account. (eg. `address(0)`)"
        }
      ],
      "OwnableUnauthorizedAccount(address)": [
        {
          "details": "The caller account is not authorized to perform an operation."
        }
      ]
    },
    "events": {
      "ApprovalForAll(address,address,bool)": {
        "details": "Emitted when `account` grants or revokes permission to `operator` to transfer their tokens, according to `approved`."
      },
      "TransferBatch(address,address,address,uint256[],uint256[])": {
        "details": "Equivalent to multiple {TransferSingle} events, where `operator`, `from` and `to` are the same for all transfers."
      },
      "TransferSingle(address,address,address,uint256,uint256)": {
        "details": "Emitted when `value` amount of tokens of type `id` are transferred from `from` to `to` by `operator`."
      },
      "URI(string,uint256)": {
        "details": "Emitted when the URI for token type `id` changes to `value`, if it is a non-programmatic URI. If an {URI} event was emitted for `id`, the standard https://eips.ethereum.org/EIPS/eip-1155#metadata-extensions[guarantees] that `value` will equal the value returned by {IERC1155MetadataURI-uri}."
      }
    },
    "kind": "dev",
    "methods": {
      "balanceOf(address,uint256)": {
        "details": "See {IERC1155-balanceOf}."
      },
      "balanceOfBatch(address[],uint256[])": {
        "details": "See {IERC1155-balanceOfBatch}. Requirements: - `accounts` and `ids` must have the same length."
      },
      "isApprovedForAll(address,address)": {
        "details": "See {IERC1155-isApprovedForAll}."
      },
      "owner()": {
        "details": "Returns the address of the current owner."
      },
      "renounceOwnership()": {
        "details": "Leaves the contract without owner. It will not be possible to call `onlyOwner` functions. Can only be called by the current owner. NOTE: Renouncing ownership will leave the contract without an owner, thereby disabling any functionality that is only available to the owner."
      },
      "safeBatchTransferFrom(address,address,uint256[],uint256[],bytes)": {
        "details": "See {IERC1155-safeBatchTransferFrom}."
      },
      "safeTransferFrom(address,address,uint256,uint256,bytes)": {
        "details": "See {IERC1155-safeTransferFrom}."
      },
      "setApprovalForAll(address,bool)": {
        "details": "See {IERC1155-setApprovalForAll}."
      },
      "totalSupply()": {
        "details": "Total value of tokens."
      },
      "transferOwnership(address)": {
        "details": "Transfers ownership of the contract to a new account (`newOwner`). Can only be called by the current owner."
      }
    },
    "version": 1
  },
  "userdoc": {
    "kind": "user",
    "methods": {
      "addFileUrl(string)": {
        "notice": " URL "
      },
      "batchMintProfileNFT(address[],string)": {
        "notice": " NFT  (  ) - ERC1155 "
      },
      "calculateBatchMintFee(uint256)": {
        "notice": "    (view )"
      },
      "createProfile(string,string,string,string,string,string,string[])": {
        "notice": "   (  )"
      },
      "exists(uint256)": {
        "notice": "   "
      },
      "getProfileByWallet(address)": {
        "notice": "     (view  -  )"
      },
      "getTokenInfo(uint256)": {
        "notice": "NFT    (view )"
      },
      "getUserFileUrls(address)": {
        "notice": "  URL  (view )"
      },
      "getUserTokenBalance(address,uint256)": {
        "notice": "     "
      },
      "getUserTokenBalances(address,uint256[])": {
        "notice": "     "
      },
      "getUserTokens(address)": {
        "notice": "  NFT   (view )"
      },
      "mintProfileNFT(address,string)": {
        "notice": " NFT  (ERC1155 )"
      },
      "profileExists(address)": {
        "notice": "    (view )"
      },
      "setMintFee(uint256)": {
        "notice": "   (owner )"
      },
      "setTokenURI(uint256,string)": {
        "notice": " URI  (owner )"
      },
      "setURI(string)": {
        "notice": " URI  (owner )"
      },
      "supportsInterface(bytes4)": {
        "notice": "ERC1155   "
      },
      "totalMintedTokens()": {
        "notice": "      (view )"
      },
      "totalSupply(uint256)": {
        "notice": "  ID   "
      },
      "updateProfile(string,string,string,string,string,string,string[])": {
        "notice": "  "
      },
      "uri(uint256)": {
        "notice": "  URI  (ERC1155 )"
      },
      "withdraw()": {
        "notice": "   (owner )"
      }
    },
    "notice": "A smart contract for storing user profiles and minting profile NFTs using ERC1155",
    "version": 1
  },
  "storageLayout": {
    "storage": [
      {
        "astId": 326,
        "contract": "contracts/ProfileNFT1155.sol:ProfileNFT1155",
        "label": "_balances",
        "offset": 0,
        "slot": "0",
        "type": "t_mapping(t_uint256,t_mapping(t_address,t_uint256))"
      },
      {
        "astId": 332,
        "contract": "contracts/ProfileNFT1155.sol:ProfileNFT1155",
        "label": "_operatorApprovals",
        "offset": 0,
        "slot": "1",
        "type": "t_mapping(t_address,t_mapping(t_address,t_bool))"
      },
      {
        "astId": 334,
        "contract": "contracts/ProfileNFT1155.sol:ProfileNFT1155",
        "label": "_uri",
        "offset": 0,
        "slot": "2",
        "type": "t_string_storage"
      },
      {
        "astId": 8,
        "contract": "contracts/ProfileNFT1155.sol:ProfileNFT1155",
        "label": "_owner",
        "offset": 0,
        "slot": "3",
        "type": "t_address"
      },
      {
        "astId": 1511,
        "contract": "contracts/ProfileNFT1155.sol:ProfileNFT1155",
        "label": "_totalSupply",
        "offset": 0,
        "slot": "4",
        "type": "t_mapping(t_uint256,t_uint256)"
      },
      {
        "astId": 1513,
        "contract": "contracts/ProfileNFT1155.sol:ProfileNFT1155",
        "label": "_totalSupplyAll",
        "offset": 0,
        "slot": "5",
        "type": "t_uint256"
      },
      {
        "astId": 3481,
        "contract": "contracts/ProfileNFT1155.sol:ProfileNFT1155",
        "label": "nextTokenId",
        "offset": 0,
        "slot": "6",
        "type": "t_uint256"
      },
      {
        "astId": 3484,
        "contract": "contracts/ProfileNFT1155.sol:ProfileNFT1155",
        "label": "mintFee",
        "offset": 0,
        "slot": "7",
        "type": "t_uint256"
      },
      {
        "astId": 3527,
        "contract": "contracts/ProfileNFT1155.sol:ProfileNFT1155",
        "label": "userProfiles",
        "offset": 0,
        "slot": "8",
        "type": "t_mapping(t_address,t_struct(UserProfile)3511_storage)"
      },
      {
        "astId": 3532,
        "contract": "contracts/ProfileNFT1155.sol:ProfileNFT1155",
        "label": "nftTokens",
        "offset": 0,
        "slot": "9",
        "type": "t_mapping(t_uint256,t_struct(NFTToken)3522_storage)"
      },
      {
        "astId": 3537,
        "contract": "contracts/ProfileNFT1155.sol:ProfileNFT1155",
        "label": "userTokens",
        "offset": 0,
        "slot": "10",
        "type": "t_mapping(t_address,t_array(t_uint256)dyn_storage)"
      },
      {
        "astId": 3541,
        "contract": "contracts/ProfileNFT1155.sol:ProfileNFT1155",
        "label": "_tokenURIs",
        "offset": 0,
        "slot": "11",
        "type": "t_mapping(t_uint256,t_string_storage)"
      }
    ],
    "types": {
      "t_address": {
        "encoding": "inplace",
        "label": "address",
        "numberOfBytes": "20"
      },
      "t_array(t_string_storage)dyn_storage": {
        "base": "t_string_storage",
        "encoding": "dynamic_array",
        "label": "string[]",
        "numberOfBytes": "32"
      },
      "t_array(t_uint256)dyn_storage": {
        "base": "t_uint256",
        "encoding": "dynamic_array",
        "label": "uint256[]",
        "numberOfBytes": "32"
      },
      "t_bool": {
        "encoding": "inplace",
        "label": "bool",
        "numberOfBytes": "1"
      },
      "t_mapping(t_address,t_array(t_uint256)dyn_storage)": {
        "encoding": "mapping",
        "key": "t_address",
        "label": "mapping(address => uint256[])",
        "numberOfBytes": "32",
        "value": "t_array(t_uint256)dyn_storage"
      },
      "t_mapping(t_address,t_bool)": {
        "encoding": "mapping",
        "key": "t_address",
        "label": "mapping(address => bool)",
        "numberOfBytes": "32",
        "value": "t_bool"
      },
      "t_mapping(t_address,t_mapping(t_address,t_bool))": {
        "encoding": "mapping",
        "key": "t_address",
        "label": "mapping(address => mapping(address => bool))",
        "numberOfBytes": "32",
        "value": "t_mapping(t_address,t_bool)"
      },
      "t_mapping(t_address,t_struct(UserProfile)3511_storage)": {
        "encoding": "mapping",
        "key": "t_address",
        "label": "mapping(address => struct ProfileNFT1155.UserProfile)",
        "numberOfBytes": "32",
        "value": "t_struct(UserProfile)3511_storage"
      },
      "t_mapping(t_address,t_uint256)": {
        "encoding": "mapping",
        "key": "t_address",
        "label": "mapping(address => uint256)",
        "numberOfBytes": "32",
        "value": "t_uint256"
      },
      "t_mapping(t_uint256,t_mapping(t_address,t_uint256))": {
        "encoding": "mapping",
        "key": "t_uint256",
        "label": "mapping(uint256 => mapping(address => uint256))",
        "numberOfBytes": "32",
        "value": "t_mapping(t_address,t_uint256)"
      },
      "t_mapping(t_uint256,t_string_storage)": {
        "encoding": "mapping",
        "key": "t_uint256",
        "label": "mapping(uint256 => string)",
        "numberOfBytes": "32",
        "value": "t_string_storage"
      },
      "t_mapping(t_uint256,t_struct(NFTToken)3522_storage)": {
        "encoding": "mapping",
        "key": "t_uint256",
        "label": "mapping(uint256 => struct ProfileNFT1155.NFTToken)",
        "numberOfBytes": "32",
        "value": "t_struct(NFTToken)3522_storage"
      },
      "t_mapping(t_uint256,t_uint256)": {
        "encoding": "mapping",
        "key": "t_uint256",
        "label": "mapping(uint256 => uint256)",
        "numberOfBytes": "32",
        "value": "t_uint256"
      },
      "t_string_storage": {
        "encoding": "bytes",
        "label": "string",
        "numberOfBytes": "32"
      },
      "t_struct(NFTToken)3522_storage": {
        "encoding": "inplace",
        "label": "struct ProfileNFT1155.NFTToken",
        "members": [
          {
            "astId": 3513,
            "contract": "contracts/ProfileNFT1155.sol:ProfileNFT1155",
            "label": "tokenId",
            "offset": 0,
            "slot": "0",
            "type": "t_uint256"
          },
          {
            "astId": 3515,
            "contract": "contracts/ProfileNFT1155.sol:ProfileNFT1155",
            "label": "owner",
            "offset": 0,
            "slot": "1",
            "type": "t_address"
          },
          {
            "astId": 3517,
            "contract": "contracts/ProfileNFT1155.sol:ProfileNFT1155",
            "label": "metadataUri",
            "offset": 0,
            "slot": "2",
            "type": "t_string_storage"
          },
          {
            "astId": 3519,
            "contract": "contracts/ProfileNFT1155.sol:ProfileNFT1155",
            "label": "mintedAt",
            "offset": 0,
            "slot": "3",
            "type": "t_uint256"
          },
          {
            "astId": 3521,
            "contract": "contracts/ProfileNFT1155.sol:ProfileNFT1155",
            "label": "tokenType",
            "offset": 0,
            "slot": "4",
            "type": "t_uint256"
          }
        ],
        "numberOfBytes": "160"
      },
      "t_struct(UserProfile)3511_storage": {
        "encoding": "inplace",
        "label": "struct ProfileNFT1155.UserProfile",
        "members": [
          {
            "astId": 3489,
            "contract": "contracts/ProfileNFT1155.sol:ProfileNFT1155",
            "label": "walletAddress",
            "offset": 0,
            "slot": "0",
            "type": "t_address"
          },
          {
            "astId": 3491,
            "contract": "contracts/ProfileNFT1155.sol:ProfileNFT1155",
            "label": "name",
            "offset": 0,
            "slot": "1",
            "type": "t_string_storage"
          },
          {
            "astId": 3493,
            "contract": "contracts/ProfileNFT1155.sol:ProfileNFT1155",
            "label": "role",
            "offset": 0,
            "slot": "2",
            "type": "t_string_storage"
          },
          {
            "astId": 3495,
            "contract": "contracts/ProfileNFT1155.sol:ProfileNFT1155",
            "label": "introduction",
            "offset": 0,
            "slot": "3",
            "type": "t_string_storage"
          },
          {
            "astId": 3497,
            "contract": "contracts/ProfileNFT1155.sol:ProfileNFT1155",
            "label": "skills",
            "offset": 0,
            "slot": "4",
            "type": "t_string_storage"
          },
          {
            "astId": 3499,
            "contract": "contracts/ProfileNFT1155.sol:ProfileNFT1155",
            "label": "contact",
            "offset": 0,
            "slot": "5",
            "type": "t_string_storage"
          },
          {
            "astId": 3501,
            "contract": "contracts/ProfileNFT1155.sol:ProfileNFT1155",
            "label": "portfolioLink",
            "offset": 0,
            "slot": "6",
            "type": "t_string_storage"
          },
          {
            "astId": 3504,
            "contract": "contracts/ProfileNFT1155.sol:ProfileNFT1155",
            "label": "fileUrls",
            "offset": 0,
            "slot": "7",
            "type": "t_array(t_string_storage)dyn_storage"
          },
          {
            "astId": 3506,
            "contract": "contracts/ProfileNFT1155.sol:ProfileNFT1155",
            "label": "metadataUri",
            "offset": 0,
            "slot": "8",
            "type": "t_string_storage"
          },
          {
            "astId": 3508,
            "contract": "contracts/ProfileNFT1155.sol:ProfileNFT1155",
            "label": "timestamp",
            "offset": 0,
            "slot": "9",
            "type": "t_uint256"
          },
          {
            "astId": 3510,
            "contract": "contracts/ProfileNFT1155.sol:ProfileNFT1155",
            "label": "exists",
            "offset": 0,
            "slot": "10",
            "type": "t_bool"
          }
        ],
        "numberOfBytes": "352"
      },
      "t_uint256": {
        "encoding": "inplace",
        "label": "uint256",
        "numberOfBytes": "32"
      }
    }
  }
}