{
  "address": "0x933E68b0C7BECd6A101b24a5b03c3b6491763590",
  "abi": [
    {
      "inputs": [
        {
          "internalType": "address",
          "name": "_owner",
          "type": "address"
        }
      ],
      "stateMutability": "nonpayable",
      "type": "constructor"
    },
    {
      "anonymous": false,
      "inputs": [
        {
          "indexed": false,
          "internalType": "address[]",
          "name": "recipients",
          "type": "address[]"
        },
        {
          "indexed": false,
          "internalType": "uint256[]",
          "name": "tokenIds",
          "type": "uint256[]"
        },
        {
          "indexed": false,
          "internalType": "string",
          "name": "metadataUri",
          "type": "string"
        },
        {
          "indexed": false,
          "internalType": "uint256",
          "name": "timestamp",
          "type": "uint256"
        }
      ],
      "name": "BatchNFTMinted",
      "type": "event"
    },
    {
      "anonymous": false,
      "inputs": [
        {
          "indexed": false,
          "internalType": "uint256",
          "name": "oldFee",
          "type": "uint256"
        },
        {
          "indexed": false,
          "internalType": "uint256",
          "name": "newFee",
          "type": "uint256"
        }
      ],
      "name": "MintFeeUpdated",
      "type": "event"
    },
    {
      "anonymous": false,
      "inputs": [
        {
          "indexed": true,
          "internalType": "address",
          "name": "to",
          "type": "address"
        },
        {
          "indexed": true,
          "internalType": "uint256",
          "name": "tokenId",
          "type": "uint256"
        },
        {
          "indexed": false,
          "internalType": "string",
          "name": "metadataUri",
          "type": "string"
        },
        {
          "indexed": false,
          "internalType": "uint256",
          "name": "timestamp",
          "type": "uint256"
        }
      ],
      "name": "NFTMinted",
      "type": "event"
    },
    {
      "anonymous": false,
      "inputs": [
        {
          "indexed": true,
          "internalType": "address",
          "name": "walletAddress",
          "type": "address"
        },
        {
          "indexed": false,
          "internalType": "string",
          "name": "name",
          "type": "string"
        },
        {
          "indexed": false,
          "internalType": "string",
          "name": "role",
          "type": "string"
        },
        {
          "indexed": false,
          "internalType": "uint256",
          "name": "timestamp",
          "type": "uint256"
        }
      ],
      "name": "ProfileCreated",
      "type": "event"
    },
    {
      "anonymous": false,
      "inputs": [
        {
          "indexed": true,
          "internalType": "address",
          "name": "walletAddress",
          "type": "address"
        },
        {
          "indexed": false,
          "internalType": "string",
          "name": "name",
          "type": "string"
        },
        {
          "indexed": false,
          "internalType": "string",
          "name": "role",
          "type": "string"
        },
        {
          "indexed": false,
          "internalType": "uint256",
          "name": "timestamp",
          "type": "uint256"
        }
      ],
      "name": "ProfileUpdated",
      "type": "event"
    },
    {
      "inputs": [
        {
          "internalType": "string",
          "name": "_fileUrl",
          "type": "string"
        }
      ],
      "name": "addFileUrl",
      "outputs": [],
      "stateMutability": "nonpayable",
      "type": "function"
    },
    {
      "inputs": [
        {
          "internalType": "address[]",
          "name": "_recipients",
          "type": "address[]"
        },
        {
          "internalType": "string",
          "name": "_metadataUri",
          "type": "string"
        }
      ],
      "name": "batchMintProfileNFT",
      "outputs": [],
      "stateMutability": "payable",
      "type": "function"
    },
    {
      "inputs": [
        {
          "internalType": "uint256",
          "name": "_recipientCount",
          "type": "uint256"
        }
      ],
      "name": "calculateBatchMintFee",
      "outputs": [
        {
          "internalType": "uint256",
          "name": "",
          "type": "uint256"
        }
      ],
      "stateMutability": "view",
      "type": "function"
    },
    {
      "inputs": [
        {
          "internalType": "string",
          "name": "_name",
          "type": "string"
        },
        {
          "internalType": "string",
          "name": "_role",
          "type": "string"
        },
        {
          "internalType": "string",
          "name": "_introduction",
          "type": "string"
        },
        {
          "internalType": "string",
          "name": "_skills",
          "type": "string"
        },
        {
          "internalType": "string",
          "name": "_contact",
          "type": "string"
        },
        {
          "internalType": "string",
          "name": "_portfolioLink",
          "type": "string"
        },
        {
          "internalType": "string[]",
          "name": "_fileUrls",
          "type": "string[]"
        }
      ],
      "name": "createProfile",
      "outputs": [],
      "stateMutability": "nonpayable",
      "type": "function"
    },
    {
      "inputs": [
        {
          "internalType": "address",
          "name": "_walletAddress",
          "type": "address"
        }
      ],
      "name": "getProfileByWallet",
      "outputs": [
        {
          "internalType": "address",
          "name": "walletAddress",
          "type": "address"
        },
        {
          "internalType": "string",
          "name": "name",
          "type": "string"
        },
        {
          "internalType": "string",
          "name": "role",
          "type": "string"
        },
        {
          "internalType": "string",
          "name": "introduction",
          "type": "string"
        },
        {
          "internalType": "string",
          "name": "skills",
          "type": "string"
        },
        {
          "internalType": "string",
          "name": "contact",
          "type": "string"
        },
        {
          "internalType": "string",
          "name": "portfolioLink",
          "type": "string"
        },
        {
          "internalType": "string[]",
          "name": "fileUrls",
          "type": "string[]"
        },
        {
          "internalType": "string",
          "name": "metadataUri",
          "type": "string"
        },
        {
          "internalType": "uint256",
          "name": "timestamp",
          "type": "uint256"
        }
      ],
      "stateMutability": "view",
      "type": "function"
    },
    {
      "inputs": [
        {
          "internalType": "uint256",
          "name": "_tokenId",
          "type": "uint256"
        }
      ],
      "name": "getTokenInfo",
      "outputs": [
        {
          "internalType": "uint256",
          "name": "tokenId",
          "type": "uint256"
        },
        {
          "internalType": "address",
          "name": "tokenOwner",
          "type": "address"
        },
        {
          "internalType": "string",
          "name": "metadataUri",
          "type": "string"
        },
        {
          "internalType": "uint256",
          "name": "mintedAt",
          "type": "uint256"
        }
      ],
      "stateMutability": "view",
      "type": "function"
    },
    {
      "inputs": [
        {
          "internalType": "address",
          "name": "_walletAddress",
          "type": "address"
        }
      ],
      "name": "getUserFileUrls",
      "outputs": [
        {
          "internalType": "string[]",
          "name": "",
          "type": "string[]"
        }
      ],
      "stateMutability": "view",
      "type": "function"
    },
    {
      "inputs": [
        {
          "internalType": "address",
          "name": "_walletAddress",
          "type": "address"
        }
      ],
      "name": "getUserTokens",
      "outputs": [
        {
          "internalType": "uint256[]",
          "name": "",
          "type": "uint256[]"
        }
      ],
      "stateMutability": "view",
      "type": "function"
    },
    {
      "inputs": [],
      "name": "mintFee",
      "outputs": [
        {
          "internalType": "uint256",
          "name": "",
          "type": "uint256"
        }
      ],
      "stateMutability": "view",
      "type": "function"
    },
    {
      "inputs": [
        {
          "internalType": "address",
          "name": "_to",
          "type": "address"
        },
        {
          "internalType": "string",
          "name": "_metadataUri",
          "type": "string"
        }
      ],
      "name": "mintProfileNFT",
      "outputs": [],
      "stateMutability": "payable",
      "type": "function"
    },
    {
      "inputs": [],
      "name": "nextTokenId",
      "outputs": [
        {
          "internalType": "uint256",
          "name": "",
          "type": "uint256"
        }
      ],
      "stateMutability": "view",
      "type": "function"
    },
    {
      "inputs": [
        {
          "internalType": "uint256",
          "name": "",
          "type": "uint256"
        }
      ],
      "name": "nftTokens",
      "outputs": [
        {
          "internalType": "uint256",
          "name": "tokenId",
          "type": "uint256"
        },
        {
          "internalType": "address",
          "name": "owner",
          "type": "address"
        },
        {
          "internalType": "string",
          "name": "metadataUri",
          "type": "string"
        },
        {
          "internalType": "uint256",
          "name": "mintedAt",
          "type": "uint256"
        }
      ],
      "stateMutability": "view",
      "type": "function"
    },
    {
      "inputs": [],
      "name": "owner",
      "outputs": [
        {
          "internalType": "address",
          "name": "",
          "type": "address"
        }
      ],
      "stateMutability": "view",
      "type": "function"
    },
    {
      "inputs": [
        {
          "internalType": "address",
          "name": "_walletAddress",
          "type": "address"
        }
      ],
      "name": "profileExists",
      "outputs": [
        {
          "internalType": "bool",
          "name": "",
          "type": "bool"
        }
      ],
      "stateMutability": "view",
      "type": "function"
    },
    {
      "inputs": [
        {
          "internalType": "uint256",
          "name": "_newFee",
          "type": "uint256"
        }
      ],
      "name": "setMintFee",
      "outputs": [],
      "stateMutability": "nonpayable",
      "type": "function"
    },
    {
      "inputs": [
        {
          "internalType": "uint256",
          "name": "",
          "type": "uint256"
        }
      ],
      "name": "tokenOwners",
      "outputs": [
        {
          "internalType": "address",
          "name": "",
          "type": "address"
        }
      ],
      "stateMutability": "view",
      "type": "function"
    },
    {
      "inputs": [],
      "name": "totalSupply",
      "outputs": [
        {
          "internalType": "uint256",
          "name": "",
          "type": "uint256"
        }
      ],
      "stateMutability": "view",
      "type": "function"
    },
    {
      "inputs": [
        {
          "internalType": "string",
          "name": "_name",
          "type": "string"
        },
        {
          "internalType": "string",
          "name": "_role",
          "type": "string"
        },
        {
          "internalType": "string",
          "name": "_introduction",
          "type": "string"
        },
        {
          "internalType": "string",
          "name": "_skills",
          "type": "string"
        },
        {
          "internalType": "string",
          "name": "_contact",
          "type": "string"
        },
        {
          "internalType": "string",
          "name": "_portfolioLink",
          "type": "string"
        },
        {
          "internalType": "string[]",
          "name": "_fileUrls",
          "type": "string[]"
        }
      ],
      "name": "updateProfile",
      "outputs": [],
      "stateMutability": "nonpayable",
      "type": "function"
    },
    {
      "inputs": [
        {
          "internalType": "address",
          "name": "",
          "type": "address"
        }
      ],
      "name": "userProfiles",
      "outputs": [
        {
          "internalType": "address",
          "name": "walletAddress",
          "type": "address"
        },
        {
          "internalType": "string",
          "name": "name",
          "type": "string"
        },
        {
          "internalType": "string",
          "name": "role",
          "type": "string"
        },
        {
          "internalType": "string",
          "name": "introduction",
          "type": "string"
        },
        {
          "internalType": "string",
          "name": "skills",
          "type": "string"
        },
        {
          "internalType": "string",
          "name": "contact",
          "type": "string"
        },
        {
          "internalType": "string",
          "name": "portfolioLink",
          "type": "string"
        },
        {
          "internalType": "string",
          "name": "metadataUri",
          "type": "string"
        },
        {
          "internalType": "uint256",
          "name": "timestamp",
          "type": "uint256"
        },
        {
          "internalType": "bool",
          "name": "exists",
          "type": "bool"
        }
      ],
      "stateMutability": "view",
      "type": "function"
    },
    {
      "inputs": [
        {
          "internalType": "address",
          "name": "",
          "type": "address"
        },
        {
          "internalType": "uint256",
          "name": "",
          "type": "uint256"
        }
      ],
      "name": "userTokens",
      "outputs": [
        {
          "internalType": "uint256",
          "name": "",
          "type": "uint256"
        }
      ],
      "stateMutability": "view",
      "type": "function"
    },
    {
      "inputs": [],
      "name": "withdraw",
      "outputs": [],
      "stateMutability": "nonpayable",
      "type": "function"
    },
    {
      "stateMutability": "payable",
      "type": "receive"
    }
  ],
  "transactionHash": "0x80e18dcdb9b65a1fa2c7264988d8da7c681cb2a38ddade8c1ff64d847f0c124a",
  "args": [
    "0x37354657880288016CB24a6Cba46570F8e604F43"
  ],
  "numDeployments": 1,
  "solcInputHash": "48e84227efa407f01bc2077133ca6fd9",
  "bytecode": "0x60a0604052600160005560006001553480156200001b57600080fd5b5060405162002c4238038062002c428339810160408190526200003e9162000050565b6001600160a01b031660805262000082565b6000602082840312156200006357600080fd5b81516001600160a01b03811681146200007b57600080fd5b9392505050565b608051612b8f620000b36000396000818161031601528181610f4401528181610fa501526118ce0152612b8f6000f3fe60806040526004361061012e5760003560e01c806387fd0392116100ab578063e68b09441161006f578063e68b094414610383578063ebd6d6ea146103a3578063eddd0d9c146103c3578063f32c13d8146103e3578063f8a14f4614610419578063f9f411d81461044f57600080fd5b806387fd0392146102b45780638c7a63ae146102d45780638da5cb5b1461030457806392f1bbb514610350578063e58307021461037057600080fd5b80633aeb88ee116100f25780633aeb88ee1461020f5780633ccfd60b1461022f578063519dc8d2146102445780635f92bd281461027157806375794a3c1461029e57600080fd5b806305cfa06f1461013a57806313966db51461018b57806318160ddd146101af578063332d56d7146101c457806339691879146101fa57600080fd5b3661013557005b600080fd5b34801561014657600080fd5b50610176610155366004612106565b6001600160a01b03166000908152600260205260409020600a015460ff1690565b60405190151581526020015b60405180910390f35b34801561019757600080fd5b506101a160015481565b604051908152602001610182565b3480156101bb57600080fd5b506101a161046f565b3480156101d057600080fd5b506101e46101df366004612106565b610485565b6040516101829a9998979695949392919061216e565b61020d610208366004612307565b610898565b005b34801561021b57600080fd5b5061020d61022a366004612457565b610c65565b34801561023b57600080fd5b5061020d610f39565b34801561025057600080fd5b5061026461025f366004612106565b61105e565b60405161018291906125ad565b34801561027d57600080fd5b5061029161028c366004612106565b6110ca565b6040516101829190612615565b3480156102aa57600080fd5b506101a160005481565b3480156102c057600080fd5b5061020d6102cf366004612628565b6111f5565b3480156102e057600080fd5b506102f46102ef366004612665565b6112a9565b604051610182949392919061267e565b34801561031057600080fd5b506103387f000000000000000000000000000000000000000000000000000000000000000081565b6040516001600160a01b039091168152602001610182565b34801561035c57600080fd5b5061020d61036b366004612457565b611400565b61020d61037e3660046126b9565b611591565b34801561038f57600080fd5b506102f461039e366004612665565b6117f2565b3480156103af57600080fd5b506101a16103be366004612665565b6118ad565b3480156103cf57600080fd5b5061020d6103de366004612665565b6118c3565b3480156103ef57600080fd5b506104036103fe366004612106565b611970565b6040516101829a999897969594939291906126fd565b34801561042557600080fd5b50610338610434366004612665565b6005602052600090815260409020546001600160a01b031681565b34801561045b57600080fd5b506101a161046a3660046127c8565b611f47565b600060016000546104809190612808565b905090565b600260205260009081526040902080546001820180546001600160a01b0390921692916104b19061281b565b80601f01602080910402602001604051908101604052809291908181526020018280546104dd9061281b565b801561052a5780601f106104ff5761010080835404028352916020019161052a565b820191906000526020600020905b81548152906001019060200180831161050d57829003601f168201915b50505050509080600201805461053f9061281b565b80601f016020809104026020016040519081016040528092919081815260200182805461056b9061281b565b80156105b85780601f1061058d576101008083540402835291602001916105b8565b820191906000526020600020905b81548152906001019060200180831161059b57829003601f168201915b5050505050908060030180546105cd9061281b565b80601f01602080910402602001604051908101604052809291908181526020018280546105f99061281b565b80156106465780601f1061061b57610100808354040283529160200191610646565b820191906000526020600020905b81548152906001019060200180831161062957829003601f168201915b50505050509080600401805461065b9061281b565b80601f01602080910402602001604051908101604052809291908181526020018280546106879061281b565b80156106d45780601f106106a9576101008083540402835291602001916106d4565b820191906000526020600020905b8154815290600101906020018083116106b757829003601f168201915b5050505050908060050180546106e99061281b565b80601f01602080910402602001604051908101604052809291908181526020018280546107159061281b565b80156107625780601f1061073757610100808354040283529160200191610762565b820191906000526020600020905b81548152906001019060200180831161074557829003601f168201915b5050505050908060060180546107779061281b565b80601f01602080910402602001604051908101604052809291908181526020018280546107a39061281b565b80156107f05780601f106107c5576101008083540402835291602001916107f0565b820191906000526020600020905b8154815290600101906020018083116107d357829003601f168201915b5050505050908060080180546108059061281b565b80601f01602080910402602001604051908101604052809291908181526020018280546108319061281b565b801561087e5780601f106108535761010080835404028352916020019161087e565b820191906000526020600020905b81548152906001019060200180831161086157829003601f168201915b505050506009830154600a9093015491929160ff1690508a565b60008251116108ee5760405162461bcd60e51b815260206004820181905260248201527f526563697069656e74732061727261792063616e6e6f7420626520656d70747960448201526064015b60405180910390fd5b81516001546108fd9190612855565b34101561094c5760405162461bcd60e51b815260206004820152601f60248201527f496e73756666696369656e74206d696e742066656520666f722062617463680060448201526064016108e5565b600081511161099d5760405162461bcd60e51b815260206004820152601c60248201527f4d65746164617461205552492063616e6e6f7420626520656d7074790000000060448201526064016108e5565b6000825167ffffffffffffffff8111156109b9576109b961222c565b6040519080825280602002602001820160405280156109e2578160200160208202803683370190505b50905060005b8351811015610c22576000848281518110610a0557610a0561286c565b6020026020010151905060006001600160a01b0316816001600160a01b031603610a715760405162461bcd60e51b815260206004820152601960248201527f496e76616c696420726563697069656e7420616464726573730000000000000060448201526064016108e5565b6001600160a01b0381166000908152600260205260409020600a015460ff16610adc5760405162461bcd60e51b815260206004820181905260248201527f526563697069656e742070726f66696c6520646f6573206e6f7420657869737460448201526064016108e5565b6000805490819080610aed83612882565b9091555050604080516080810182528281526001600160a01b0384811660208084019182528385018a8152426060860152600087815260039092529490208351815590516001820180546001600160a01b031916919093161790915591519091906002820190610b5d90826128e9565b5060609190910151600390910155600081815260056020908152604080832080546001600160a01b0319166001600160a01b03871690811790915580845260048352818420805460018101825590855283852001859055835260029091529020600801610bca86826128e9565b5080848481518110610bde57610bde61286c565b602002602001018181525050610c0d6040518060600160405280602a8152602001612b30602a91398284611f78565b50508080610c1a90612882565b9150506109e8565b507f598e9cb1b24d320d7ae56243b518101dec739d3779ec78a6f8c0a288cc5d8e0583828442604051610c5894939291906129a9565b60405180910390a1505050565b336000908152600260205260409020600a015460ff1615610cc15760405162461bcd60e51b815260206004820152601660248201527550726f66696c6520616c72656164792065786973747360501b60448201526064016108e5565b6000875111610d095760405162461bcd60e51b81526020600482015260146024820152734e616d652063616e6e6f7420626520656d70747960601b60448201526064016108e5565b6000865111610d515760405162461bcd60e51b8152602060048201526014602482015273526f6c652063616e6e6f7420626520656d70747960601b60448201526064016108e5565b610d906040518060400160405280601f81526020017f4372656174696e672070726f66696c6520666f722077616c6c65743a2025730081525033611fbf565b60408051610160810182523380825260208083018b81528385018b9052606084018a90526080840189905260a0840188905260c0840187905260e0840186905284518083018652600080825261010086019190915242610120860152600161014086018190529381526002909252939020825181546001600160a01b0319166001600160a01b03909116178155925191929190820190610e3090826128e9565b5060408201516002820190610e4590826128e9565b5060608201516003820190610e5a90826128e9565b5060808201516004820190610e6f90826128e9565b5060a08201516005820190610e8490826128e9565b5060c08201516006820190610e9990826128e9565b5060e08201518051610eb591600784019160209091019061202d565b506101008201516008820190610ecb90826128e9565b50610120820151600982015561014090910151600a909101805460ff191691151591909117905560405133907f729d3664274983d1d1b3255dd990736babd877454af86fdbd7a33e4dbd175c2890610f28908a908a904290612a26565b60405180910390a250505050505050565b336001600160a01b037f00000000000000000000000000000000000000000000000000000000000000001614610fa15760405162461bcd60e51b815260206004820152600d60248201526c2737ba103a34329027bbb732b960991b60448201526064016108e5565b60007f00000000000000000000000000000000000000000000000000000000000000006001600160a01b03164760405160006040518083038185875af1925050503d806000811461100e576040519150601f19603f3d011682016040523d82523d6000602084013e611013565b606091505b505090508061105b5760405162461bcd60e51b81526020600482015260146024820152732330b4b632b2103a379039b2b7321022ba3432b960611b60448201526064016108e5565b50565b6001600160a01b0381166000908152600460209081526040918290208054835181840281018401909452808452606093928301828280156110be57602002820191906000526020600020905b8154815260200190600101908083116110aa575b50505050509050919050565b6001600160a01b0381166000908152600260205260409020600a015460609060ff166111085760405162461bcd60e51b81526004016108e590612a5c565b6001600160a01b038216600090815260026020908152604080832060070180548251818502810185019093528083529193909284015b828210156111ea57838290600052602060002001805461115d9061281b565b80601f01602080910402602001604051908101604052809291908181526020018280546111899061281b565b80156111d65780601f106111ab576101008083540402835291602001916111d6565b820191906000526020600020905b8154815290600101906020018083116111b957829003601f168201915b50505050508152602001906001019061113e565b505050509050919050565b336000818152600260205260409020600a015460ff166112275760405162461bcd60e51b81526004016108e590612a5c565b60008251116112785760405162461bcd60e51b815260206004820152601860248201527f46696c652055524c2063616e6e6f7420626520656d707479000000000000000060448201526064016108e5565b336000908152600260209081526040822060070180546001810182559083529120016112a483826128e9565b505050565b600081815260056020526040812054819060609082906001600160a01b031661130b5760405162461bcd60e51b8152602060048201526014602482015273151bdad95b88191bd95cc81b9bdd08195e1a5cdd60621b60448201526064016108e5565b600085815260036020908152604080832081516080810183528154815260018201546001600160a01b03169381019390935260028101805491928401916113519061281b565b80601f016020809104026020016040519081016040528092919081815260200182805461137d9061281b565b80156113ca5780601f1061139f576101008083540402835291602001916113ca565b820191906000526020600020905b8154815290600101906020018083116113ad57829003601f168201915b50505091835250506003919091015460209182015281519082015160408301516060909301519199909850919650945092505050565b336000818152600260205260409020600a015460ff166114325760405162461bcd60e51b81526004016108e590612a5c565b600088511161147a5760405162461bcd60e51b81526020600482015260146024820152734e616d652063616e6e6f7420626520656d70747960601b60448201526064016108e5565b60008751116114c25760405162461bcd60e51b8152602060048201526014602482015273526f6c652063616e6e6f7420626520656d70747960601b60448201526064016108e5565b336000908152600260205260409020600181016114df8a826128e9565b50600281016114ee89826128e9565b50600381016114fd88826128e9565b506004810161150c87826128e9565b506005810161151b86826128e9565b506006810161152a85826128e9565b508251611540906007830190602086019061202d565b50336001600160a01b03167f5234a1fe3b86530be73aaef6a7669881e2a8ba277dab36c7e7fa7ac54646d9f28a8a4260405161157e93929190612a26565b60405180910390a2505050505050505050565b6001543410156115db5760405162461bcd60e51b8152602060048201526015602482015274496e73756666696369656e74206d696e742066656560581b60448201526064016108e5565b600081511161162c5760405162461bcd60e51b815260206004820152601c60248201527f4d65746164617461205552492063616e6e6f7420626520656d7074790000000060448201526064016108e5565b6001600160a01b0382166000908152600260205260409020600a015460ff166116975760405162461bcd60e51b815260206004820181905260248201527f526563697069656e742070726f66696c6520646f6573206e6f7420657869737460448201526064016108e5565b60008054908190806116a883612882565b9091555050604080516080810182528281526001600160a01b038581166020808401918252838501878152426060860152600087815260039092529490208351815590516001820180546001600160a01b03191691909316179091559151909190600282019061171890826128e9565b5060609190910151600390910155600081815260056020908152604080832080546001600160a01b0319166001600160a01b0388169081179091558084526004835281842080546001810182559085528385200185905583526002909152902060080161178583826128e9565b506117a9604051806060016040528060248152602001612b0c602491398285611f78565b80836001600160a01b03167f7f9dd5d8fa69e733db2277a568b65a9651a3042da18fb2b5ea1966d3891cbfda84426040516117e5929190612a8c565b60405180910390a3505050565b60036020526000908152604090208054600182015460028301805492936001600160a01b03909216926118249061281b565b80601f01602080910402602001604051908101604052809291908181526020018280546118509061281b565b801561189d5780601f106118725761010080835404028352916020019161189d565b820191906000526020600020905b81548152906001019060200180831161188057829003601f168201915b5050505050908060030154905084565b6000816001546118bd9190612855565b92915050565b336001600160a01b037f0000000000000000000000000000000000000000000000000000000000000000161461192b5760405162461bcd60e51b815260206004820152600d60248201526c2737ba103a34329027bbb732b960991b60448201526064016108e5565b600180549082905560408051828152602081018490527f7864bf708cae822050e5f50960a0de31bd6fe7620a8f67a48582fb95f29c114a910160405180910390a15050565b6001600160a01b0381166000908152600260205260408120600a01546060908190819081908190819081908190899060ff166119be5760405162461bcd60e51b81526004016108e590612a5c565b6001600160a01b03808c1660009081526002602090815260408083208151610160810190925280549094168152600184018054939491939192840191611a039061281b565b80601f0160208091040260200160405190810160405280929190818152602001828054611a2f9061281b565b8015611a7c5780601f10611a5157610100808354040283529160200191611a7c565b820191906000526020600020905b815481529060010190602001808311611a5f57829003601f168201915b50505050508152602001600282018054611a959061281b565b80601f0160208091040260200160405190810160405280929190818152602001828054611ac19061281b565b8015611b0e5780601f10611ae357610100808354040283529160200191611b0e565b820191906000526020600020905b815481529060010190602001808311611af157829003601f168201915b50505050508152602001600382018054611b279061281b565b80601f0160208091040260200160405190810160405280929190818152602001828054611b539061281b565b8015611ba05780601f10611b7557610100808354040283529160200191611ba0565b820191906000526020600020905b815481529060010190602001808311611b8357829003601f168201915b50505050508152602001600482018054611bb99061281b565b80601f0160208091040260200160405190810160405280929190818152602001828054611be59061281b565b8015611c325780601f10611c0757610100808354040283529160200191611c32565b820191906000526020600020905b815481529060010190602001808311611c1557829003601f168201915b50505050508152602001600582018054611c4b9061281b565b80601f0160208091040260200160405190810160405280929190818152602001828054611c779061281b565b8015611cc45780601f10611c9957610100808354040283529160200191611cc4565b820191906000526020600020905b815481529060010190602001808311611ca757829003601f168201915b50505050508152602001600682018054611cdd9061281b565b80601f0160208091040260200160405190810160405280929190818152602001828054611d099061281b565b8015611d565780601f10611d2b57610100808354040283529160200191611d56565b820191906000526020600020905b815481529060010190602001808311611d3957829003601f168201915b5050505050815260200160078201805480602002602001604051908101604052809291908181526020016000905b82821015611e30578382906000526020600020018054611da39061281b565b80601f0160208091040260200160405190810160405280929190818152602001828054611dcf9061281b565b8015611e1c5780601f10611df157610100808354040283529160200191611e1c565b820191906000526020600020905b815481529060010190602001808311611dff57829003601f168201915b505050505081526020019060010190611d84565b505050508152602001600882018054611e489061281b565b80601f0160208091040260200160405190810160405280929190818152602001828054611e749061281b565b8015611ec15780601f10611e9657610100808354040283529160200191611ec1565b820191906000526020600020905b815481529060010190602001808311611ea457829003601f168201915b5050505050815260200160098201548152602001600a820160009054906101000a900460ff1615151515815250509050806000015181602001518260400151836060015184608001518560a001518660c001518760e001518861010001518961012001519a509a509a509a509a509a509a509a509a509a50509193959799509193959799565b60046020528160005260406000208181548110611f6357600080fd5b90600052602060002001600091509150505481565b6112a4838383604051602401611f9093929190612aae565b60408051601f198184030181529190526020810180516001600160e01b031663038fd88960e31b179052612008565b6120048282604051602401611fd5929190612ae1565b60408051601f198184030181529190526020810180516001600160e01b031663319af33360e01b179052612008565b5050565b61105b8160006a636f6e736f6c652e6c6f679050600080835160208501845afa505050565b828054828255906000526020600020908101928215612073579160200282015b82811115612073578251829061206390826128e9565b509160200191906001019061204d565b5061207f929150612083565b5090565b8082111561207f57600061209782826120a0565b50600101612083565b5080546120ac9061281b565b6000825580601f106120bc575050565b601f01602090049060005260206000209081019061105b91905b8082111561207f57600081556001016120d6565b80356001600160a01b038116811461210157600080fd5b919050565b60006020828403121561211857600080fd5b612121826120ea565b9392505050565b6000815180845260005b8181101561214e57602081850181015186830182015201612132565b506000602082860101526020601f19601f83011685010191505092915050565b6001600160a01b038b168152610140602082018190526000906121938382018d612128565b905082810360408401526121a7818c612128565b905082810360608401526121bb818b612128565b905082810360808401526121cf818a612128565b905082810360a08401526121e38189612128565b905082810360c08401526121f78188612128565b905082810360e084015261220b8187612128565b61010084019590955250509015156101209091015298975050505050505050565b634e487b7160e01b600052604160045260246000fd5b604051601f8201601f1916810167ffffffffffffffff8111828210171561226b5761226b61222c565b604052919050565b600067ffffffffffffffff82111561228d5761228d61222c565b5060051b60200190565b600082601f8301126122a857600080fd5b813567ffffffffffffffff8111156122c2576122c261222c565b6122d5601f8201601f1916602001612242565b8181528460208386010111156122ea57600080fd5b816020850160208301376000918101602001919091529392505050565b6000806040838503121561231a57600080fd5b823567ffffffffffffffff8082111561233257600080fd5b818501915085601f83011261234657600080fd5b8135602061235b61235683612273565b612242565b82815260059290921b8401810191818101908984111561237a57600080fd5b948201945b8386101561239f57612390866120ea565b8252948201949082019061237f565b965050860135925050808211156123b557600080fd5b506123c285828601612297565b9150509250929050565b600082601f8301126123dd57600080fd5b813560206123ed61235683612273565b82815260059290921b8401810191818101908684111561240c57600080fd5b8286015b8481101561244c57803567ffffffffffffffff8111156124305760008081fd5b61243e8986838b0101612297565b845250918301918301612410565b509695505050505050565b600080600080600080600060e0888a03121561247257600080fd5b873567ffffffffffffffff8082111561248a57600080fd5b6124968b838c01612297565b985060208a01359150808211156124ac57600080fd5b6124b88b838c01612297565b975060408a01359150808211156124ce57600080fd5b6124da8b838c01612297565b965060608a01359150808211156124f057600080fd5b6124fc8b838c01612297565b955060808a013591508082111561251257600080fd5b61251e8b838c01612297565b945060a08a013591508082111561253457600080fd5b6125408b838c01612297565b935060c08a013591508082111561255657600080fd5b506125638a828b016123cc565b91505092959891949750929550565b600081518084526020808501945080840160005b838110156125a257815187529582019590820190600101612586565b509495945050505050565b6020815260006121216020830184612572565b600081518084526020808501808196508360051b8101915082860160005b858110156126085782840389526125f6848351612128565b988501989350908401906001016125de565b5091979650505050505050565b60208152600061212160208301846125c0565b60006020828403121561263a57600080fd5b813567ffffffffffffffff81111561265157600080fd5b61265d84828501612297565b949350505050565b60006020828403121561267757600080fd5b5035919050565b8481526001600160a01b03841660208201526080604082018190526000906126a890830185612128565b905082606083015295945050505050565b600080604083850312156126cc57600080fd5b6126d5836120ea565b9150602083013567ffffffffffffffff8111156126f157600080fd5b6123c285828601612297565b6001600160a01b038b168152610140602082018190526000906127228382018d612128565b90508281036040840152612736818c612128565b9050828103606084015261274a818b612128565b9050828103608084015261275e818a612128565b905082810360a08401526127728189612128565b905082810360c08401526127868188612128565b905082810360e084015261279a81876125c0565b90508281036101008401526127af8186612128565b915050826101208301529b9a5050505050505050505050565b600080604083850312156127db57600080fd5b6127e4836120ea565b946020939093013593505050565b634e487b7160e01b600052601160045260246000fd5b818103818111156118bd576118bd6127f2565b600181811c9082168061282f57607f821691505b60208210810361284f57634e487b7160e01b600052602260045260246000fd5b50919050565b80820281158282048414176118bd576118bd6127f2565b634e487b7160e01b600052603260045260246000fd5b600060018201612894576128946127f2565b5060010190565b601f8211156112a457600081815260208120601f850160051c810160208610156128c25750805b601f850160051c820191505b818110156128e1578281556001016128ce565b505050505050565b815167ffffffffffffffff8111156129035761290361222c565b61291781612911845461281b565b8461289b565b602080601f83116001811461294c57600084156129345750858301515b600019600386901b1c1916600185901b1785556128e1565b600085815260208120601f198616915b8281101561297b5788860151825594840194600190910190840161295c565b50858210156129995787850151600019600388901b60f8161c191681555b5050505050600190811b01905550565b6080808252855190820181905260009060209060a0840190828901845b828110156129eb5781516001600160a01b0316845292840192908401906001016129c6565b505050838103828501526129ff8188612572565b9150508281036040840152612a148186612128565b91505082606083015295945050505050565b606081526000612a396060830186612128565b8281036020840152612a4b8186612128565b915050826040830152949350505050565b602080825260169082015275141c9bd99a5b1948191bd95cc81b9bdd08195e1a5cdd60521b604082015260600190565b604081526000612a9f6040830185612128565b90508260208301529392505050565b606081526000612ac16060830186612128565b6020830194909452506001600160a01b0391909116604090910152919050565b604081526000612af46040830185612128565b905060018060a01b0383166020830152939250505056fe4d696e74696e67204e465420746f6b656e49643a20257320666f7220757365723a2025734261746368206d696e74696e67204e465420746f6b656e49643a20257320666f7220757365723a202573a2646970667358221220662b74020367f80c8681046843d9c09166a9c516633b1f89ec8e0a67f80cc1e864736f6c63430008140033",
  "devdoc": {
    "author": "BuidlGuidl",
    "kind": "dev",
    "methods": {},
    "version": 1
  },
  "userdoc": {
    "kind": "user",
    "methods": {
      "addFileUrl(string)": {
        "notice": " URL "
      },
      "batchMintProfileNFT(address[],string)": {
        "notice": " NFT  (  )"
      },
      "calculateBatchMintFee(uint256)": {
        "notice": "    (view )"
      },
      "createProfile(string,string,string,string,string,string,string[])": {
        "notice": "   (  )"
      },
      "getProfileByWallet(address)": {
        "notice": "     (view  -  )"
      },
      "getTokenInfo(uint256)": {
        "notice": "NFT    (view )"
      },
      "getUserFileUrls(address)": {
        "notice": "  URL  (view )"
      },
      "getUserTokens(address)": {
        "notice": "  NFT   (view )"
      },
      "mintProfileNFT(address,string)": {
        "notice": " NFT "
      },
      "profileExists(address)": {
        "notice": "    (view )"
      },
      "setMintFee(uint256)": {
        "notice": "   (owner )"
      },
      "totalSupply()": {
        "notice": "   NFT  (view )"
      },
      "updateProfile(string,string,string,string,string,string,string[])": {
        "notice": "  "
      },
      "withdraw()": {
        "notice": "   (owner )"
      }
    },
    "notice": "A smart contract for storing user profiles and minting profile NFTs",
    "version": 1
  },
  "storageLayout": {
    "storage": [
      {
        "astId": 8,
        "contract": "contracts/main.sol:ProfileNFT",
        "label": "nextTokenId",
        "offset": 0,
        "slot": "0",
        "type": "t_uint256"
      },
      {
        "astId": 11,
        "contract": "contracts/main.sol:ProfileNFT",
        "label": "mintFee",
        "offset": 0,
        "slot": "1",
        "type": "t_uint256"
      },
      {
        "astId": 49,
        "contract": "contracts/main.sol:ProfileNFT",
        "label": "userProfiles",
        "offset": 0,
        "slot": "2",
        "type": "t_mapping(t_address,t_struct(UserProfile)35_storage)"
      },
      {
        "astId": 54,
        "contract": "contracts/main.sol:ProfileNFT",
        "label": "nftTokens",
        "offset": 0,
        "slot": "3",
        "type": "t_mapping(t_uint256,t_struct(NFTToken)44_storage)"
      },
      {
        "astId": 59,
        "contract": "contracts/main.sol:ProfileNFT",
        "label": "userTokens",
        "offset": 0,
        "slot": "4",
        "type": "t_mapping(t_address,t_array(t_uint256)dyn_storage)"
      },
      {
        "astId": 63,
        "contract": "contracts/main.sol:ProfileNFT",
        "label": "tokenOwners",
        "offset": 0,
        "slot": "5",
        "type": "t_mapping(t_uint256,t_address)"
      }
    ],
    "types": {
      "t_address": {
        "encoding": "inplace",
        "label": "address",
        "numberOfBytes": "20"
      },
      "t_array(t_string_storage)dyn_storage": {
        "base": "t_string_storage",
        "encoding": "dynamic_array",
        "label": "string[]",
        "numberOfBytes": "32"
      },
      "t_array(t_uint256)dyn_storage": {
        "base": "t_uint256",
        "encoding": "dynamic_array",
        "label": "uint256[]",
        "numberOfBytes": "32"
      },
      "t_bool": {
        "encoding": "inplace",
        "label": "bool",
        "numberOfBytes": "1"
      },
      "t_mapping(t_address,t_array(t_uint256)dyn_storage)": {
        "encoding": "mapping",
        "key": "t_address",
        "label": "mapping(address => uint256[])",
        "numberOfBytes": "32",
        "value": "t_array(t_uint256)dyn_storage"
      },
      "t_mapping(t_address,t_struct(UserProfile)35_storage)": {
        "encoding": "mapping",
        "key": "t_address",
        "label": "mapping(address => struct ProfileNFT.UserProfile)",
        "numberOfBytes": "32",
        "value": "t_struct(UserProfile)35_storage"
      },
      "t_mapping(t_uint256,t_address)": {
        "encoding": "mapping",
        "key": "t_uint256",
        "label": "mapping(uint256 => address)",
        "numberOfBytes": "32",
        "value": "t_address"
      },
      "t_mapping(t_uint256,t_struct(NFTToken)44_storage)": {
        "encoding": "mapping",
        "key": "t_uint256",
        "label": "mapping(uint256 => struct ProfileNFT.NFTToken)",
        "numberOfBytes": "32",
        "value": "t_struct(NFTToken)44_storage"
      },
      "t_string_storage": {
        "encoding": "bytes",
        "label": "string",
        "numberOfBytes": "32"
      },
      "t_struct(NFTToken)44_storage": {
        "encoding": "inplace",
        "label": "struct ProfileNFT.NFTToken",
        "members": [
          {
            "astId": 37,
            "contract": "contracts/main.sol:ProfileNFT",
            "label": "tokenId",
            "offset": 0,
            "slot": "0",
            "type": "t_uint256"
          },
          {
            "astId": 39,
            "contract": "contracts/main.sol:ProfileNFT",
            "label": "owner",
            "offset": 0,
            "slot": "1",
            "type": "t_address"
          },
          {
            "astId": 41,
            "contract": "contracts/main.sol:ProfileNFT",
            "label": "metadataUri",
            "offset": 0,
            "slot": "2",
            "type": "t_string_storage"
          },
          {
            "astId": 43,
            "contract": "contracts/main.sol:ProfileNFT",
            "label": "mintedAt",
            "offset": 0,
            "slot": "3",
            "type": "t_uint256"
          }
        ],
        "numberOfBytes": "128"
      },
      "t_struct(UserProfile)35_storage": {
        "encoding": "inplace",
        "label": "struct ProfileNFT.UserProfile",
        "members": [
          {
            "astId": 13,
            "contract": "contracts/main.sol:ProfileNFT",
            "label": "walletAddress",
            "offset": 0,
            "slot": "0",
            "type": "t_address"
          },
          {
            "astId": 15,
            "contract": "contracts/main.sol:ProfileNFT",
            "label": "name",
            "offset": 0,
            "slot": "1",
            "type": "t_string_storage"
          },
          {
            "astId": 17,
            "contract": "contracts/main.sol:ProfileNFT",
            "label": "role",
            "offset": 0,
            "slot": "2",
            "type": "t_string_storage"
          },
          {
            "astId": 19,
            "contract": "contracts/main.sol:ProfileNFT",
            "label": "introduction",
            "offset": 0,
            "slot": "3",
            "type": "t_string_storage"
          },
          {
            "astId": 21,
            "contract": "contracts/main.sol:ProfileNFT",
            "label": "skills",
            "offset": 0,
            "slot": "4",
            "type": "t_string_storage"
          },
          {
            "astId": 23,
            "contract": "contracts/main.sol:ProfileNFT",
            "label": "contact",
            "offset": 0,
            "slot": "5",
            "type": "t_string_storage"
          },
          {
            "astId": 25,
            "contract": "contracts/main.sol:ProfileNFT",
            "label": "portfolioLink",
            "offset": 0,
            "slot": "6",
            "type": "t_string_storage"
          },
          {
            "astId": 28,
            "contract": "contracts/main.sol:ProfileNFT",
            "label": "fileUrls",
            "offset": 0,
            "slot": "7",
            "type": "t_array(t_string_storage)dyn_storage"
          },
          {
            "astId": 30,
            "contract": "contracts/main.sol:ProfileNFT",
            "label": "metadataUri",
            "offset": 0,
            "slot": "8",
            "type": "t_string_storage"
          },
          {
            "astId": 32,
            "contract": "contracts/main.sol:ProfileNFT",
            "label": "timestamp",
            "offset": 0,
            "slot": "9",
            "type": "t_uint256"
          },
          {
            "astId": 34,
            "contract": "contracts/main.sol:ProfileNFT",
            "label": "exists",
            "offset": 0,
            "slot": "10",
            "type": "t_bool"
          }
        ],
        "numberOfBytes": "352"
      },
      "t_uint256": {
        "encoding": "inplace",
        "label": "uint256",
        "numberOfBytes": "32"
      }
    }
  }
}